:020000040800F2
:10000000605F00201903000849420008613D0008B4
:1000100045420008510C0008E951000800000000AA
:10002000000000000000000000000000590200086D
:100030002111000800000000B50200082B44000850
:1000400033030008330300083303000833030008B8
:1000500033030008330300083303000833030008A8
:100060003303000833030008330300083303000898
:10007000010F000833030008110F000833030008C4
:10008000210F0008310F000833030008310D00086C
:10009000550C00083303000833030008231100083F
:1000A0003303000833030008330300083303000858
:1000B000330300089D450008AD45000833030008E0
:1000C0003303000833030008330300083303000838
:1000D00033030008D94F0008F14F00080950000809
:1000E0003303000833030008330300083303000818
:1000F0003303000833030008330300083303000808
:1001000033030008330300083303000833030008F7
:1001100033030008330300083303000833030008E7
:1001200033030008410F0008510F00083303000893
:10013000330300083303000833030008C90D000827
:10014000410D00083303000833030008330300089F
:1001500033030008610F0008710F000821500008E8
:100160003303000833030008330300083303000897
:1001700033030008330300083303000800000000C5
:10018000330300083303000800F002F800F055F8CC
:100190000AA090E8000C82448344AAF10107DA45E2
:1001A00001D100F04AF8AFF2090EBAE80F0013F0DF
:1001B000010F18BFFB1A43F001031847ACB500004C
:1001C000CCB500000A4410F8014B14F00F0508BF2D
:1001D00010F8015B240908BF10F8014B6D1E05D013
:1001E00010F8013B6D1E01F8013BF9D1641E03D0EC
:1001F000641E01F8015BFBD19142E4D3704700001B
:100200000023002400250026103A28BF78C1FBD81F
:10021000520728BF30C148BF0B6070471FB50BF0B5
:1002200077F89DE8030000F087FA00F0B5F91FBDEC
:1002300010B5002007F0CDFA10BD00F0BFFA11464E
:10024000FFF7ECFF08F0B9FA00F0F7FA03B4FFF794
:10025000EFFF03BC00F0ACFA2C4B19680868B0E85B
:10026000F04F80F30988BFF36F8F4FF0000080F3E9
:10027000118870470000000008480068006880F39B
:1002800008884FF0000080F3148862B661B6BFF3AF
:100290004F8FBFF36F8F00DF00BF00BF08ED00E09E
:1002A000DFF80C00016841F470010160704700BF85
:1002B00088ED00E0EFF30980BFF36F8F134B1A68EE
:1002C0001EF0100F08BF20ED108A20E9F04F1060DB
:1002D00009B44FF0500080F31188BFF34F8FBFF384
:1002E0006F8F09F08FFB4FF0000080F3118809BC7D
:1002F00019680868B0E8F04F1EF0100F08BFB0ECA6
:10030000108A80F30988BFF36F8F70473000002098
:10031000EFF305807047000009488047094800470F
:10032000FEE7FEE7FEE7FEE7FEE7FEE7FEE7FEE7A5
:10033000FEE7FEE704480549054A064B7047000002
:10034000F54400088901000860590020605F002022
:10035000605B0020605B002053EA020C00F06980C3
:100360002DE9F04B4FF00006002B1FBFB3FA83F5C9
:1003700003FA05F424FA05F65E4012BF1643B2FAFA
:1003800082F502FA05F4C5F120051EBF22FA05FC2C
:1003900044EA0C04203556EA044C4FEA144418BFD2
:1003A000641C4FF000084FF00009904271EB030C01
:1003B00039D3002919BFB1FA81F701FA07F6B0FA6B
:1003C00080F700FA07F6C7F120071EBF20FA07FCE6
:1003D00046EA0C062037B6FBF4FCA7EB0507103FF6
:1003E00007F01F0BCBF120060CFA0BFB2CFA06F6DC
:1003F00044BFB3460026202FA4BF5E464FF0000B3B
:100400005BEA060C08BF4FF0010B19EB0B09ABFBC5
:10041000027C48EB0608C01B06FB02CC0BFB03CC9E
:1004200071EB0C01C1E70B46024641464846BDE868
:10043000F08B13B54FF000004FF00001AFF30080D8
:10044000BDE81C407047032A40F2308010F0030CD6
:1004500000F0158011F8013BBCF1020F624498BF17
:1004600011F801CB00F8013B38BF11F8013BA2F1B4
:10047000040298BF00F801CB38BF00F8013B11F02F
:10048000030300F02580083AC0F0088051F8043BCF
:10049000083A51F804CBA0E80810F5E7121D5CBF3C
:1004A00051F8043B40F8043BAFF30080D20724BF6F
:1004B00011F8013B11F801CB48BF11F8012B24BF03
:1004C00000F8013B00F801CB48BF00F8012B704752
:1004D00010B5203AC0F00B80B1E81850203AA0E8DF
:1004E0001850B1E81850A0E81850BFF4F5AF5FEA13
:1004F000027C24BFB1E81850A0E8185044BF18C9C6
:1005000018C0BDE810405FEA827C24BF51F8043B6C
:1005100040F8043B08BF7047D20728BF31F8023BC0
:1005200048BF11F8012B28BF20F8023B48BF00F854
:10053000012B704702F0FF0343EA032242EA024222
:1005400000F0B5B84FF0000200B513469446964649
:10055000203922BFA0E80C50A0E80C50B1F12001D6
:10056000BFF4F7AF090728BFA0E80C5048BF0CC084
:100570005DF804EB890028BF40F8042B08BF7047E2
:1005800048BF20F8022B11F0804F18BF00F8012B54
:10059000704770477047704770B5064C7C44064DF5
:1005A0007D4403E0206820448047241DAC42F9D1FB
:1005B00070BD0000E8B10000FCB100002DE9F04181
:1005C00017460E46054633B107FB0354E41B20468D
:1005D000B047A542FAD1A5F10800BDE8F0810000BE
:1005E000004870473459002070B5064600F084F882
:1005F000056806F10B0020F00704B4429CBF002000
:1006000070BD2B466A68BAB11068A04210D304F1DD
:10061000080188423CBF5068586007D351681019E0
:1006200041601168091B016058601460101D70BDA5
:1006300013465268002AE7D12146284600F068F8A0
:100640000028DED170BD70B50446051F00F054F8D7
:100650000068002C14BF446870BD002C18BFAC4269
:100660003CBF20466468F8D301680A18AA4218BF44
:10067000456003D12A680546114401602868411984
:10068000A1421CBF6C6070BD61686960216808444C
:10069000286070BD10B500F033F8006810BD10B5CB
:1006A000044600F02DF8046010BD4FF0000204294C
:1006B000C0F0128010F0030C3FF446AFCCF1040CF4
:1006C000BCF1020F18BF00F8012BA8BF20F8022BC5
:1006D000A1EB0C01FFF738BF5FEAC17C24BF00F833
:1006E000012B00F8012B48BF00F8012B70470000D8
:1006F00000487047FC58002000487047045900200B
:1007000000487047FC58002070477047704770479A
:1007100038B504460A4600206946AFF30080002839
:1007200008BF38BD02460099204600F06CF8012051
:1007300038BD012000F0A0B8F8B5AFF30080054641
:1007400000200C46102000BF0646A819A0420DD973
:10075000324669460020AFF30080070008BF00F072
:100760008BF80098A04218BF0546C419FFF7C4FFD4
:1007700005600746F01D20F007004619284600F0E6
:100780000AF8B44208BFF8BDA21B31463868BDE87C
:10079000F84000F038B800210160C0E9011070474E
:1007A00010207047002801D000F002B87047000008
:1007B00001491820ABBEFEE7260002007546FFF790
:1007C00097FFAE4605006946534620F00700854670
:1007D00018B020B5FFF7AEFDBDE820404FF0000691
:1007E0004FF000074FF000084FF0000B21F0070119
:1007F000AC46ACE8C009ACE8C009ACE8C009ACE85C
:10080000C0098D467047034640688C46002818BFD3
:1008100088423CBF03464068F8D3186818448842B1
:1008200007D00CF1030020F00700001D411A521AF6
:100830000146081D0A60FFF706BF0446AFF30080BB
:100840002046FFF703FD70B505460C460A2000E080
:100850006D1C00F018F835B128780028F8D102E0B6
:10086000641C00F010F814B120780028F8D1BDE81D
:1008700070400A2000F007B810B500F00DF8BDE890
:100880001040FFF78FBF08B569468DF800000320C0
:10089000ABBE08BD7047000010B5012805D000218F
:1008A00003A0FFF7D0FF012010BD09A1F8E7000069
:1008B00053494752544D454D3A204F7574206F6649
:1008C0002068656170206D656D6F727900000000B1
:1008D0003A2048656170206D656D6F727920636F95
:1008E000727275707465640010B5044604232C227E
:1008F00002490348FFF762FE10BD000031570008AF
:10090000E04F002010B50446042338220249034872
:10091000FFF754FE10BD000029720008905000201F
:100920002DED068B88B000BF994A1289A2F2DC51E6
:10093000002901DB0A4600E04A42642A4ADA944A66
:100940005289A2F2DC50002801DB024600E042425C
:10095000642A3FDA8E48008940F2B951884209DDA5
:100960008B48008940F2FF51884203DA40F2DC50A4
:10097000874908818648408940F2B951884209DD9B
:100980008348408940F2FF51884203DA40F2DC504C
:100990007F4948817E48808940F2B951884209DD0B
:1009A0007B48808940F2FF51884203DA40F2DC50F4
:1009B000774988817648C08940F2B951884209DD7B
:1009C0007348C08940F2FF51884203DA40F2DC509C
:1009D0006F49C8816E48008948B96D48408930B96F
:1009E0006B48808918B96A48C08900287DD068485A
:1009F000008840F29E71884278DD6548008840F6A4
:100A00000201884272DA6248C08840F2B6318842F8
:100A100001DD012000E000205D49C98840F21A4252
:100A2000914201DA012100E00021084000287CD039
:100A30005748808840F2B631884209DD54488088A2
:100A400040F21A41884203DA02208DF81C0022E0AD
:100A50004F48808840F2AA51884209DD4C4880887E
:100A600040F20E61884203DA00208DF81C0012E08B
:100A70004748808840F29E71884209DD444880885A
:100A800040F60201884203DA01208DF81C0002E0E2
:100A900002208DF81C003E494989A1F2DC500AF081
:100AA00018FA41EC1A0B9FED3B0B53EC102B0AF09C
:100AB00089F841EC190B9FED390B53EC102B0AF020
:100AC00033FA41EC180B09F0A3FF01903049098972
:100AD000A1F2DC500AF0FDF941EC1A0B9FED2D0B51
:100AE00053EC102B0AF06EF801E049E04CE041ECC9
:100AF000190B9FED2A0B53EC102B0AF015FA41EC61
:100B0000180B09F085FF029021498989A1F2DC5078
:100B10000AF0DFF941EC1A0B9FED1E0B53EC102B82
:100B20000AF050F841EC190B00E012E09FED1D0BAC
:100B300053EC102B0AF0F8F941EC180B09F068FFA0
:100B4000069000231A4601A91848006809F05AF9CE
:100B50001AE00F48C08840F29E71884201DD0120F2
:100B600000E000200A49C98840F60202914201DAF9
:100B7000012100E00021084030B103F09DFB03E0BB
:100B80001C2101A8FFF7DEFC012007F038FECBE6B0
:100B90007C4F00200000000000407F40000000006B
:100BA0000000084000000000000010402C01002060
:100BB00010B5002211460B4803F00CFC04F01CFB9E
:100BC00003F056FB084806F017FC074806F0CCFB7C
:100BD000054806F0D1F8044804F024FD024806F068
:100BE00037FC10BD080200203911000808B515486F
:100BF000007800F0010070B9124806F00BFE50B109
:100C000011487E210170EF2141704121817000BFA8
:100C10000C48AFF3008000BF00200090002269461E
:100C20000A48006809F040FA012803D106480099F3
:100C300006F0F1FB0448009906F0EDFB012007F0F7
:100C4000DEFDE9E758010020B858002030010020FF
:100C500000BFFEE710B5024800F0A7FC10BD000081
:100C60007001002010B50446A06880BB40F2062247
:100C70002068811A90421CD005DC022808D0A0F21E
:100C8000052018BB0AE001291AD0022927D11FE04C
:100C900004F11C01134806F05FFC20E004F11C0184
:100CA000114804F013FD11480068401C0F4908600A
:100CB00015E004F11C010C482C3004F007FD0EE097
:100CC00004F11C010848583004F000FD07E007E07B
:100CD00004F11C010448843004F0F8FC00BF00BF9C
:100CE00010BD000014570020E04F00203801002004
:100CF0001FB500BF4FF0FF3269460B48006809F08E
:100D0000D3F90128F6D100BF084800F033FCC4B283
:100D1000002CF9D09DF80430009881B20DF1050245
:100D2000024807F021FDE5E71801002070010020CE
:100D300010B5024800F039FC10BD00007001002021
:100D400010B5024800F031FC10BD000098010020F1
:100D500010B50446A068042812D12146094806F0BF
:100D600015F921460748383006F010F921460548A4
:100D7000703006F00BF921460248A83006F006F95B
:100D800010BD0000905000201FB500BF4FF0FF3293
:100D900069460B48006809F087F90128F6D100BFC1
:100DA000084800F0E7FBC4B2002CF9D09DF80430ED
:100DB0000DF105020348009907F0B8FCE6E70000D2
:100DC0001C0100209801002010B5024800F0EDFB46
:100DD00010BD000098010020F0B58BB007460C460E
:100DE00015461E4604F0020080B1E8040190E800B8
:100DF00004F0030140EA41000290F0040390F00087
:100E000004F0030140EA4100049009E06801019008
:100E1000A007400F029070010390A007400F0490BC
:100E2000E0100690C4F38000059001200990002096
:100E30000790012008900E200A9001A9384600F082
:100E400049FA08B100F072F90BB0F0BD70B5044674
:100E50000D46204600F0A9FE08B100F067F9012117
:100E6000204600F077F908B100F060F90221204631
:100E700000F070F908B100F059F91021204600F097
:100E800069F908B100F052F908492068884203D195
:100E900007480560002070BD06492068884203D1DC
:100EA000054805600020F6E70120F4E700640040F3
:100EB0003C01002000680040400100201FB500BF39
:100EC00000220C490C48006809F0EEF801280CD10A
:100ED000084B0C330FCB8DE80F0006480EC80748AF
:100EE00005F0D2FA054804F001FD012007F087FC67
:100EF000E6E70000F45700202C010020E851002014
:100F000010B5024800F0F2FE10BD0000E004002021
:100F100010B5024800F0EAFE10BD000040050020B8
:100F200010B5024800F0E2FE10BD000020040020D1
:100F300010B5024800F0DAFE10BD00008004002069
:100F400010B5024800F0D2FE10BD0000A005002040
:100F500010B5024800F0CAFE10BD0000C00300201A
:100F600010B5024800F0C2FE10BD000000060020CF
:100F700010B5024800F0BAFE10BD0000600300206A
:100F80000146087810381823B0FBF3F20848805C5B
:100F9000C865032A05D908686FF30900001D886534
:100FA00003E008686FF309008865886D70470000EA
:100FB00020B40008014600208A6A8B69CBB932B19F
:100FC000012A0DD0022A03D0032A10D10EE000BF5F
:100FD000CB6A03F08073B3F1807F00D1012007E07A
:100FE000CB6AB3F1C07F00D1012001E000E000BF77
:100FF00034E08B69B3F5005F1AD132B1012A07D012
:10100000022A03D0032A11D10AE000BF01200EE01A
:10101000CB6A03F08073B3F1807F00D1012006E03A
:10102000CB6AB3F1C07F00D1012000E000BF15E022
:1010300032B1012A05D0022A04D0032A0CD103E0E0
:1010400000BF00BF012008E0CB6A03F08073B3F15A
:10105000807F00D1012000E000BF00BF704730B5A5
:101060000468246824F4802405682C6004686360A4
:101070008468402C04D10468A2600468E16003E045
:101080000468A1600468E26030BD000010B5002271
:101090001021082008F0CCFD194908600022102119
:1010A000082008F0C5FD1749086000220C21042023
:1010B00008F0BEFD1449086000220C21042008F04D
:1010C000B7FD1249086000221C21042008F0B0FD81
:1010D0000F49086000221C21042008F0A9FD0D49D9
:1010E000086000220421022008F0A2FD0A490860DD
:1010F00000220121172008F09BFD0849086010BD5F
:10110000180100201C0100202001002024010020E3
:10111000280100202C010020300100203401002093
:10112000704710B5802000F0CBFF10BD72B600BF35
:10113000FEE700BFFEE70000044800680068406A60
:1011400003490968C1EB0141084470474801002088
:101150004401002010B5024692F82030012B01D046
:10116000022B06D1106840690843146860610020B2
:1011700010BD506A40F4802050620120F8E7F0B5BD
:1011800004460D461E4694F8207020688368A868BF
:1011900000B900E000BF012F01D0022F7CD103F085
:1011A000806030B903F0006018B903F08050002867
:1011B00073D0C3F30161022905D9606A40F40000CD
:1011C00060620120F0BD012088403060A86860B9ED
:1011D000B5F800C0E86840EA4C5C206800F5C070D3
:1011E00000EB0110C0F800C00FE0D5E901C040EAF3
:1011F000CC00D5F80CC040EA0C00D4F800C00CF5C7
:10120000C07C0CEB011CCCF80000D5F810C02068A5
:1012100000F5C07000EB0110C0F804C0287D012863
:101220000ED1206800F5C07000EB0110406840F45A
:10123000807C206800F5C07000EB0110C0F804C08D
:10124000D079000692F806C040EA0C4092F805C03A
:1012500040EA0C2C10794CEA000C206800F5C070B4
:1012600000EB0110C0F80CC0D078000692F802C064
:1012700040EA0C4092F801C040EA0C2092F800C00D
:1012800040EA0C00D4F800C00CF5C07C0CEB011C4B
:10129000CCF80800206801E016E00FE000F5C0700F
:1012A00000EB0110006840F0010C206800F5C070F0
:1012B00000EB0110C0F800C0002083E7606A40F432
:1012C0000010606201207DE7606A40F48020606267
:1012D000012077E7F0B504460A46216894F82050CB
:1012E000012D01D0022D7ED1424901F5007108681F
:1012F00040F001000860086820F47C50086008682D
:10130000566A40EA06200860107D00F01F060120A2
:1013100000FA06F3C8699843C861A1F50071D06965
:10132000C8B9D1F80C029843C1F80C02908880B279
:10133000968940EA064601F51070576940F8376013
:10134000108880B2168940EA064601F51070576988
:1013500000EBC7004660D069012819D1D1F80C0212
:101360001843C1F80C02908880B2168840EA0646FD
:1013700001F51070576940F83760908980B216897E
:1013800040EA064601F51070576900EBC700466059
:10139000906928B9D1F804029843C1F8040204E026
:1013A000D1F804021843C1F80402106928B9D1F831
:1013B00014029843C1F8140204E0D1F8140218434F
:1013C000C1F81402106A012804D1D1F81C02184394
:1013D000C1F81C02D1F8000220F00100C1F800029F
:1013E0000020F0BDFFE7606A40F4802060620120C9
:1013F000F7E7000000640040704770B5044694F8B9
:101400002050012D01D0022D7DD151B92068C06836
:1014100000F0030080B9606A40F4001060620120AF
:1014200070BD2068006900F0030028B9606A40F4CC
:10143000001060620120F3E7206800F5D87000EB2F
:101440000110006800F004009060906840B92068C6
:1014500000F5D87000EB01100068400D106007E047
:10146000206800F5D87000EB01100068C0085060DB
:10147000206800F5D87000EB0110006800F0020051
:10148000D060206800F5D87000EB0110406800F0D3
:101490000F001061206800F5D87000EB0110406863
:1014A00000F47F40000A9061206800F5D87000EBDE
:1014B00001104068000C5061206800F5D87000EB06
:1014C000011080681870206800F5D87000EB0110DA
:1014D000806800F47F40000A5870206800F5D870DA
:1014E00000EB0110806800F47F00000C9870206809
:1014F00000F5D87000EB01108068000ED8702068ED
:1015000000F5D87000E02FE000EB0110C068187102
:10151000206800F5D87000EB0110C06800F47F402F
:10152000000A5871206800F5D87000EB0110C068FF
:1015300000F47F00000C9871206800F5D87000EB73
:101540000110C068000ED87131B92068C06840F041
:1015500020002668F06005E02068006940F0200067
:101560002668306100205BE7606A40F4802060629A
:10157000012055E70146002091F82020012A01D0E2
:10158000022A11D10B689B6803F0806303B1401CF1
:101590000B689B6803F0006303B1401C0B689B68F9
:1015A00003F0805303B1401C70472DE9F05F0446FF
:1015B0000025206846692068D0F804902068876874
:1015C0002068D0F80CA02068D0F810B02068D0F8BF
:1015D000188006F00100002855D007F00100C0B1C6
:1015E00001202168886007F0020018B1204600F051
:1015F0000CFB0EE007F0040010B145F4006508E0B4
:1016000007F0080010B145F4805502E0204600F0D4
:10161000FBFA07F48070C8B14FF4807021688860CD
:1016200007F4007018B1204600F0F1FA0EE007F45C
:10163000806010B145F4005508E007F4006010B177
:1016400045F4804502E0204600F0E0FA07F48030DF
:10165000C8B14FF480302168886007F4003018B1B9
:10166000204600F0D6FA0EE007F4802010B145F4D1
:10167000004508E007F4002010B145F4803502E091
:10168000204600F0C5FA06F0080038B10AF0100054
:1016900020B145F4007510202168C86006F00400F0
:1016A00040B10AF0080028B108202168C86020462F
:1016B00000F01EFA06F0020038B12068C06800F0A1
:1016C000030010B1204600F015FA06F0400038B1D2
:1016D0000BF0100020B145F48065102021680861EE
:1016E00006F0200040B10BF0080028B10820216866
:1016F0000861204600F02AFA06F0100038B1206890
:10170000006900F0030010B1204600F021FA06F451
:10171000003040B109F0100028B110202168486065
:10172000204600F041FA06F4803040B109F008008C
:1017300028B1082021684860204600F06BFA06F4C2
:10174000004088B309F0040078B306F4807020B13B
:1017500008F0010008B145F0010506F4007020B161
:1017600008F0020008B145F0020506F4806020B1DF
:1017700008F0040008B145F0040506F40060A0B1CB
:1017800008F0700088B108F07000402817D006DC1F
:1017900010280BD020280CD0302819D10CE050286C
:1017A00010D0602814D110E01DE019E045F00805C4
:1017B0000FE045F010050CE045F0200509E045F08C
:1017C000400506E045F0800503E045F4807500E043
:1017D00000BF00BF2068806920F070002168886128
:1017E0000420216848602DB1606A28436062204669
:1017F000FFF702FEBDE8F09F70B504460CB901206A
:1018000070BD94F8200010B9204600F0AFF82068B1
:10181000006840F001002168086000F05FFD0546A7
:101820000DE000F05BFD401B0A2808D9606A40F417
:1018300000306062052084F820000120E0E7206885
:10184000406800F001000028EBD02068006820F01C
:1018500002002168086000F041FD05460DE000F03F
:101860003DFD401B0A2808D9606A40F400306062E0
:10187000052084F820000120C2E72068406800F0BD
:1018800002000028EBD1207E012806D120680068E4
:1018900040F080002168086005E02068006820F0C2
:1018A000800021680860607E012806D120680068F9
:1018B00040F040002168086005E02068006820F0E2
:1018C000400021680860A07E012806D120680068D9
:1018D00040F020002168086005E02068006820F0E2
:1018E000200021680860E07E012806D12068006899
:1018F00020F010002168086005E02068006840F0D2
:10190000100021680860207F012806D12068006847
:1019100040F008002168086005E02068006820F0B9
:10192000080021680860607F012806D120680068EF
:1019300040F004002168086005E02068006820F09D
:10194000040021680860D4E90201084321690843C2
:10195000616908436168491E08432168C861002025
:101960006062012084F82000002049E710B586B0AD
:101970000446142101A8FEF7E5FD57492068884276
:101980004AD156480068401C54490860084600681F
:1019900001280FD100BF002000905148006840F09E
:1019A00000704F4908600846006800F00070009021
:1019B00000BF00BF00BF00200090494810380068F9
:1019C00040F001004649103908600846006800F000
:1019D0000100009000BF00BF4FF4C05001900220F2
:1019E000029000200390032004900920059001A993
:1019F0003C4800F073FB00220521132000F032FD6B
:101A0000132000F01FFD00220521142000F02AFD04
:101A1000142000F017FD5DE033492068884259D159
:101A200000BF002000902E48006840F080602C49E4
:101A300008600846006800F08060009000BF00BFAA
:101A400026480068401C25490860084600680128AF
:101A50000FD100BF002000902148006840F00070C6
:101A60001F4908600846006800F00070009000BF41
:101A700000BF00BF0020009019481038006840F0F7
:101A800002001749103908600846006800F002009B
:101A9000009000BF00BF4FF4405001900220029020
:101AA00000200390032004900920059001A90F480D
:101AB00000F014FB002205213F2000F0D3FC3F2062
:101AC00000F0C0FC00220521402000F0CBFC4020AB
:101AD00000F0B8FC06B010BD006400401C000020FF
:101AE000403802400000024000680040000402400C
:101AF0007047000010B504460F4884420BD10F4BCD
:101B0000A3F11C0200212046FFF777FC0B481C388C
:101B10000B49096888470B4884420BD1074BA3F156
:101B20001C0200212046FFF768FC04481C380649C7
:101B30000968884710BD0000700100208857002008
:101B40003C01002098010020400100207047000067
:101B500010B504460F4884420BD10F4BA3F11C0271
:101B600001212046FFF749FC0B481C380B49096846
:101B700088470B4884420BD1074BA3F11C0201217B
:101B80002046FFF73AFC04481C3806490968884794
:101B900010BD000070010020AC5700203C01002067
:101BA0009801002040010020704770B5044694F869
:101BB0002000012822D1022084F82000206800683B
:101BC00020F001002168086000F088FB05460DE068
:101BD00000F084FB401B0A2808D9606A40F40030FA
:101BE0006062052084F82000012070BD20684068F4
:101BF00000F001000028EBD16062F6E7606A40F473
:101C0000002060620120F0E770477047704770471E
:101C100070477047704770B50446A56D00F05EFBD5
:101C2000064694F83500022808D08020606500BF81
:101C3000002084F8340000BF012070BD20680068D7
:101C400020F01600216808602068406920F08000BC
:101C500021684861206C08B9A06C28B12068006830
:101C600020F00800216808602068006820F001006A
:101C70002168086010E000F031FB801B05280BD9BB
:101C800020206065032084F8350000BF002084F820
:101C9000340000BF0320D0E72068006800F0010096
:101CA0000028E8D194F85C103F208840A86001200B
:101CB00084F8350000BF002084F8340000BF00BF66
:101CC000BBE7014691F83500022803D08020486523
:101CD00001207047052081F835000868006820F071
:101CE00001000A6810600020F3E70000F8B5044620
:101CF000002000908C4800684FF41651B0FBF1F7BB
:101D0000A56D2E6894F85C1008208840304098B18A
:101D10002068006800F0040070B12068006820F0BE
:101D200004002168086094F85C1008208840A860CE
:101D3000606D40F00100606594F85C1001208840FF
:101D4000304068B12068406900F0800040B194F8EC
:101D50005C1001208840A860606D40F00200606562
:101D600094F85C1004208840304068B12068006816
:101D700000F0020040B194F85C1004208840A86094
:101D8000606D40F00400606594F85C10102088409D
:101D9000304078B32068006800F0080050B394F831
:101DA0005C1010208840A8602068006800F4802043
:101DB00080B12068006800F4002028B9206CC8B108
:101DC0002046216C884715E0A06C98B12046A16C94
:101DD00088470FE02068006800F4807028B9206808
:101DE000006820F0080021680860206C10B12046CF
:101DF000216C884794F85C102020884030400028EF
:101E000065D02068006800F0100000285FD094F8CA
:101E10005C1020208840A86094F83500052828D15F
:101E20002068006820F0160021680860206840697A
:101E300020F0800021684861206C08B9A06C28B1AE
:101E40002068006820F008002168086094F85C10A1
:101E50003F208840A860012084F8350000BF0020A2
:101E600084F8340000BF206D10B12046216D8847F2
:101E7000F8BD2068006800F4802080B12068006808
:101E800000F4002028B9606C10B12046616C8847CE
:101E90001DE0E06BD8B12046E16B884717E0206871
:101EA000006800F4807068B92068006820F01000B5
:101EB00021680860012084F8350000BF002084F804
:101EC000340000BFE06B10B12046E16B8847606DC5
:101ED00038B3606D00F00100F0B1052084F83500E2
:101EE0002068006820F001002168086000BF0098A9
:101EF000401C0090B84200D905E02068006800F05E
:101F000001000028F3D100BF012084F8350000BF94
:101F1000002084F8340000BFE06C10B12046E16C72
:101F2000884700BFA4E700002C0000202DE9F04105
:101F30000446002500F0D2F9074614B90120BDE897
:101F4000F081606A00B100BF022084F8350000BF54
:101F5000002084F8340000BF2068006820F00100F1
:101F6000216808600AE000F0B9F9C01B052805D90E
:101F700020206065032084F83500E0E720680068D1
:101F800000F001000028EED12068056821480540D6
:101F9000D4E901010843E168084321690843616904
:101FA0000843A1690843E1690843216A08430543DE
:101FB000606A042803D1D4E90B0108430543206873
:101FC00005602068456925F00705606A0543606A79
:101FD00004280DD1A06A0543E06A48B12046FEF707
:101FE000E9FF28B140206065012084F83500A6E7AC
:101FF000206845612046FEF7C3FF064694F85C1052
:102000003F208840B06000206065012084F83500E2
:10201000002094E73F8010F02DE9F04704460D467C
:1020200016461F464FF00008D4F8589000BF94F8A9
:102030003400012802D10220BDE8F087012084F895
:10204000340000BF94F83500012825D1022084F81F
:102050003500002060653B46324629462046FEF7A3
:10206000FEFF94F85C103F208840C9F80800206803
:10207000006840F0160021680860206C28B12068D4
:10208000006840F00800216808602068006840F09F
:1020900001002168086006E000BF002084F83400D9
:1020A00000BF4FF002084046C6E7000010B50446E6
:1020B00080222146014805F0FFF810BD7C4F00202A
:1020C00010B5044604480068204020B1024804606E
:1020D0002046FFF7EBFF10BD143C0140F8B5024667
:1020E0000B460025002400200021D6E0012606FA38
:1020F00001F51E6806EA0504AC4274D11E7906F0AB
:102100000306012E04D01E7906F00306022E13D119
:1021100090684F000326BE40B0434F00DE68BE40CB
:1021200030439060506801268E40B0431E79C6F35C
:1021300000168E40304350601E7906F00306032ED1
:1021400009D0D0684F000326BE40B0434F009E68C0
:10215000BE403043D0601E7906F00306022E13D134
:10216000CF0802F1200656F827004E07F70E0F267B
:10217000BE40B0434F07FF0E1E69BE403043CF083C
:1021800002F1200646F8270010684F000326BE40E3
:10219000B0431E7906F003064F00BE403043106086
:1021A0005E6806F44036002E76D000BF002600960A
:1021B0003C4E366846F480463A4F3E603E463668AE
:1021C00006F48046009600BF00BF374E8F0856F8D1
:1021D00027008E07370F0F26BE40B043334EB24262
:1021E00002D1002624E057E0314EB24201D101264F
:1021F0001EE0304EB24201D1022619E02E4EB2420C
:1022000001D1032614E02D4EB24201D104260FE085
:102210002B4EB24201D105260AE02A4EB24201D12C
:10222000062605E0284EB24201D1072600E0082626
:102230008F073F0FBE4030431B4E8F0846F82700E4
:10224000224E3068A0435E6806F4801606B1204333
:102250001E4E3060361D3068A0435E6806F40016DE
:1022600006B12043194E361D3060184E361F3068B7
:10227000A0435E6806F4003606B12043134E361FB5
:102280003060361F3068A0435E6806F4803606B1C1
:1022900020430E4E083E3060491C1029FFF426AF43
:1022A000F8BD0000443802400838014000000240F8
:1022B0000004024000080240000C024000100240EE
:1022C0000014024000180240001C0240083C01407B
:1022D0000AB1816101E00B04836170470148006825
:1022E0007047000020000020034800680349097877
:1022F00008440149086070472000002028000020A1
:1023000010B50D48006840F400700B49086008469D
:10231000006840F4806008600846006840F48070FF
:102320000860032000F0DCF80F2000F007F800F050
:102330005FF8002010BD0000003C02402DE9F04194
:1023400088B004460027B84600BF0020019023480B
:10235000006840F00200214908600846006800F06B
:102360000200019000BF00BF02A903A800F08EF98F
:10237000069F1FB900F0B2F9054602E000F0AEF981
:1023800045001748B5FBF0F0A0F1010815481649C3
:10239000086040F2E7311448C160C0F804800021B1
:1023A00001618160816100F0BBFC064696B90E4870
:1023B00000F026FD06466EB91D2000F043F8102CF3
:1023C00007D2002221461D2000F04CF80748046087
:1023D00000E00126304608B0BDE8F08140380240F8
:1023E00040420F000004004060060020240000204E
:1023F00008B500BF002000901148006840F48040FC
:102400000F4908600846006800F48040009000BF53
:1024100000BF00BF00200090081F006840F08050FF
:10242000091F08600846006800F08050009000BF57
:1024300000BF00220F21901E00F014F808BD00001C
:102440004438024001460846002809DB00F01F031B
:1024500001229A4043099B0003F1E023C3F80021C5
:1024600000BF70472DE9F05F80460D4616460027F5
:1024700005F068F9074639462A46334601F0070059
:10248000C0F1070ABAF1040F02D94FF0040A01E0C3
:10249000C0F1070AD14600F1040ABAF1070F02D2CF
:1024A0004FF0000A01E0A0F1030AD4464FF0010A00
:1024B0000AFA09FAAAF1010A0AEA020A0AFA0CFA65
:1024C0004FF0010B0BFA0CFBABF1010B0BEA030B0A
:1024D0004AEA0B042146404605F03CF9BDE8F09F6E
:1024E00000BF00F00702064B19684FF6FF031940C2
:1024F000044B0B4343EA0221014B196000BF7047B4
:102500000CED00E00000FA0570B504460D460CB96C
:10251000012070BD5848006800F00700A84209D2A9
:1025200055490D700846006800F00700A84201D028
:102530000120EEE7207800F0020002281DD120786B
:1025400000F00400042805D14C48006840F4E05035
:102550004A490860207800F00800082805D147485B
:10256000006840F46040454908604448006820F035
:10257000F000A168084341490860207800F001009C
:10258000A8B36068012807D13C4808380068C0F348
:102590004040B8B90120BCE76068022802D06068FA
:1025A000032807D1354808380068C0F3406048B9AF
:1025B0000120AEE7314808380068C0F3400008B990
:1025C0000120A6E72D48006820F003006168084359
:1025D0002A490860FFF782FE064609E0FFF77EFE03
:1025E000801B41F28831884202D9032091E707E03D
:1025F0002248006800F00C006168B0EB810FEDD15B
:102600001D48006800F00700A84209D91A490D705A
:102610000846006800F00700A84201D0012078E7D2
:10262000207800F00400042807D11448006820F442
:10263000E050E168084311490860207800F0080084
:10264000082808D10D48006820F46040216940EA5C
:10265000C1000A49086000F061F808490968C1F33F
:102660000311074A515CC8400649086006480068E3
:10267000FFF764FE00204CE7003C024008380240AF
:1026800028B400082C000020240000200F22026043
:102690000D4A126802F0030242600B4A126802F00F
:1026A000F0028260084A126802F4E052C260064AF0
:1026B000126802F46042D2080261044A126802F011
:1026C00007020A607047000008380240003C0240E0
:1026D00001480068704700002C00002000B5FFF79B
:1026E000F7FF04490968C1F38221034A515CC840DD
:1026F00000BD00000838024038B4000800B5FFF7FC
:10270000E7FF04490968C1F34231034A515CC840FC
:1027100000BD00000838024038B400082DE9F04739
:10272000002400250026A1462548006800F00C0082
:1027300020B1042805D008283AD105E0DFF88490BC
:1027400039E0DFF8849036E01D48001F006800F093
:102750003F041B48001F006800F4800078B11A484D
:102760001749091F0968C1F38811A0FB01700146D0
:10277000224600233846FDF7EFFD05460EE01148DE
:102780000F49091F0968C1F38811A0FB01700146B8
:10279000224600233846FDF7DFFD05460848001FA6
:1027A0000068C0F30140401C4600B5FBF6F902E0AA
:1027B000DFF8109000BF00BF4846BDE8F08700007A
:1027C000083802400024F40000127A00F8B50446EC
:1027D0000CB90120F8BD207800F00100002874D069
:1027E000F948006800F00C0004280DD0F648006895
:1027F00000F00C00082813D1F348001F006800F413
:102800008000B0F5800F0BD1EF4808380068C0F3A6
:102810004040002859D06068002856D10120D9E7EF
:1028200000BF6068B0F5803F08D1E748083800680D
:1028300040F48030E449083908601EE06068B0F573
:10284000A02F0DD1E0480838006840F48020DE4910
:10285000083908600846006840F4803008600CE0E1
:10286000D9480838006820F48030D7490839086012
:102870000846006820F48020086000BF606890B1BE
:10288000FFF72CFD054606E0FFF728FD401B6428F6
:1028900001D903209EE7CC4808380068C0F34040C7
:1028A0000028F1D011E0FFF719FD054606E0FFF71B
:1028B00015FD401B642801D903208BE7C248083866
:1028C0000068C0F340400028F1D1207800F00200F9
:1028D00002285FD1BC48006800F00C0058B1BA482B
:1028E000006800F00C0008281CD1B748001F0068E1
:1028F00000F48000B0B9B44808380068C0F3400064
:1029000020B1E068012801D0012063E7AE48083813
:10291000006820F0F800216940EAC100AA4908399E
:10292000086037E0E06800B30120A8490860FFF7BD
:10293000D5FC054606E0FFF7D1FC401B022801D973
:10294000032047E7A04808380068C0F3400000288B
:10295000F1D09D480838006820F0F800216940EA6D
:10296000C10099490839086014E0002097490860BF
:10297000FFF7B4FC054606E0FFF7B0FC401B022859
:1029800001D9032026E7904808380068C0F34000CA
:102990000028F1D1207800F0080008282CD16069C7
:1029A000A8B101208A490860FFF798FC054606E0B7
:1029B000FFF794FC401B022801D903200AE7824854
:1029C0006C300068C0F340000028F1D014E0002013
:1029D0007F490860FFF782FC054606E0FFF77EFCB2
:1029E000401B022801D90320F4E677486C300068C8
:1029F000C0F340000028F1D1207800F00400042842
:102A000070D1002770483830006800F0805090B9CD
:102A100000BF002000906C483830006840F08050C3
:102A20006949383108600846006800F0805000901D
:102A300000BF00BF01276748006800F48070B0B98C
:102A40006448006840F4807062490860FFF746FC03
:102A5000054606E0FFF742FC401B022801D903208F
:102A6000B8E65C48006800F480700028F2D000BF2F
:102A7000A068012808D154486830006840F001007F
:102A80005149683108601DE0A06805280DD14E4805
:102A90006830006840F004004B496831086008461F
:102AA000006840F0010008600CE0474868300068AA
:102AB00020F001004449683108600846006820F0B1
:102AC0000400086000BFA068A8B1FFF707FC054636
:102AD00009E0FFF703FC401B41F28831884202D92C
:102AE000032077E626E0384868300068C0F34000ED
:102AF0000028EED013E0FFF7F1FB054608E0FFF7F2
:102B0000EDFB401B41F28831884201D9032061E688
:102B10002D4868300068C0F340000028EFD1012F35
:102B200007D129483830006820F0805026493831D4
:102B3000086000BFA069002845D02348006800F065
:102B40000C0008285DD0A069022845D100201F494B
:102B50000866FFF7C3FB054606E0FFF7BFFB401B17
:102B6000022801D9032035E6174808380068C0F369
:102B700040600028F1D1D4E907010843616A40EAC6
:102B800081110122A06AC2EB500041EA00412C20D1
:102B9000005D41EA00600C49091F086001200B49F3
:102BA0000866FFF79BFB054606E0FFF797FB401B17
:102BB000022801D903200DE6034808380068C0F355
:102BC00040600028F1D049E0083802400000474248
:102BD000800E474200700040002021490866FFF740
:102BE0007DFB054606E0FFF779FB401B022801D973
:102BF0000320EFE51B480068C0F340600028F2D1D5
:102C00002CE0A069012800D1E4E51648001D066803
:102C1000A069012820D006F48001E06981421BD11F
:102C200006F03F01206A814216D147F6C07030405D
:102C3000616AB0EB811F0FD106F440310122A06A16
:102C4000C2EB5000B1EB004F06D106F070612C20B2
:102C5000005DB1EB006F01D00120BBE50020B9E5BC
:102C600000004742003802407047704730B50246C6
:102C70000B4600BF92F83C00012801D1022030BD74
:102C8000012082F83C0000BF022082F83D0010685D
:102C900044681068816824F0700418680443106860
:102CA0004460184D1068A8421BD01068B0F1804FE6
:102CB00017D0154D1068A84213D0144D1068A842C3
:102CC0000FD0134D1068A8420BD0124D1068A842C7
:102CD00007D0114D1068A84203D0104D1068A842CB
:102CE00005D121F0800158680143106881600120FE
:102CF00082F83D0000BF002082F83C0000BF00BF0A
:102D0000BDE7000000000140000400400008004052
:102D1000000C004000040140004001400018004049
:102D200010B504460CB9012010BD94F83D0028B937
:102D3000002084F83C00204600F026F8022084F8A9
:102D40003D00211D206801F039FC012084F8460077
:102D500000BF84F83E0001213F200155402001556D
:102D60004120015500BF00BF012084F842004320EC
:102D70000155442001554520015500BF012084F82C
:102D80003D000020D0E7000038B50446194920680E
:102D9000884218D100BF002000901748006840F01A
:102DA0000400154908600846006800F0040000901F
:102DB00000BF00BF002205211E20FFF753FB1E208D
:102DC000FFF740FB15E00D492068884211D100BF94
:102DD000002000900848001D006840F400300649BB
:102DE000091D08600846006800F40030009000BF2C
:102DF00000BF38BD00080040403802400044014098
:102E0000014691F83D00012801D0012070470220C1
:102E100081F83D000868C06840F001000B68D86088
:102E20001A4B086898421BD00868B0F1804F17D041
:102E3000174B0868984213D0164B086898420FD079
:102E4000154B086898420BD0144B0868984207D07D
:102E5000134B0868984203D0124B086898420CD173
:102E60000868806800F00702062A0CD0086800682D
:102E700040F001000B68186005E00868006840F049
:102E800001000B6818600020C0E70000000001404E
:102E90000004004000080040000C00400004014015
:102EA00000400140001800402DE9F04104460D4665
:102EB000002700BF94F83C00012802D10220BDE8A1
:102EC000F081012084F83C0000BF022084F83D001E
:102ED0002068866826F0770626F47F46206886609C
:102EE0002868502833D00CDC202850D004DC00287F
:102EF0004BD0102851D149E0302849D040284CD13E
:102F000039E060282DD0702807D0B0F5805F03D05D
:102F1000B0F5005F41D10DE041E0D5E902136A68E8
:102F2000206801F0C8FB2068866846F077062068B4
:102F3000866034E0D5E902136A68206801F0BBFBC3
:102F40002068806840F480402168886027E0EA6853
:102F50006968206801F0A0FC5021206801F0B6FBF0
:102F60001DE0EA686968206801F0A9FC602120681A
:102F700001F0ACFB13E0EA686968206801F08CFCA2
:102F80004021206801F0A2FB09E000BF00BF00BFA4
:102F90002968206801F09AFB01E0012700BF00BF0B
:102FA000012084F83D0000BF002084F83C0000BFF1
:102FB000384684E7704710B5044620680069C0F3BE
:102FC0004000D8B12068C068C0F34000B0B16FF0D5
:102FD000020021680861012020772068806900F0E4
:102FE000030018B12046FFF7E5FF05E0204600F09A
:102FF000DDF8204600F091F9002020772068006974
:10300000C0F38000D8B12068C068C0F38000B0B1C0
:103010006FF0040021680861022020772068806931
:1030200000F4407018B12046FFF7C4FF05E02046C9
:1030300000F0BCF8204600F070F9002020772068EE
:103040000069C0F3C000D8B12068C068C0F3C000F8
:10305000B0B16FF008002168086104202077206873
:10306000C06900F0030018B12046FFF7A3FF05E098
:10307000204600F09BF8204600F04FF90020207712
:1030800020680069C0F30010D8B12068C068C0F3A0
:103090000010B0B16FF0100021680861082020779F
:1030A0002068C06900F4407018B12046FFF782FF25
:1030B00005E0204600F07AF8204600F02EF90020C6
:1030C00020772068006900F0010058B12068C068CE
:1030D00000F0010030B16FF0010021680861204666
:1030E00000F0A2F920680069C0F3C01058B1206850
:1030F000C068C0F3C01030B16FF080002168086173
:103100002046FFF7B1FD20680069C0F3801058B178
:103110002068C068C0F3801030B16FF040002168B3
:103120000861204600F094F920680069C0F340105F
:1031300058B12068C068C0F3401030B16FF0200073
:10314000216808612046FFF790FD10BD10B586B0DC
:103150000446142101A8FDF7F5F9114920688842B9
:103160001CD100BF002000900E48006840F02000F5
:103170000C4908600846006800F02000009000BF7D
:1031800000BF402001900220029000200390049094
:103190000320059001A90448FEF7A0FF06B010BD6A
:1031A00000440140303802400014024070472DE9CD
:1031B000F04104460D461646002700BF94F83C0037
:1031C000012802D10220BDE8F081012084F83C00F2
:1031D00000BF36B1042E1BD0082E31D00C2E5ED18C
:1031E00045E02946206801F07BFA2068806940F0BC
:1031F0000800216888612068806920F00400216847
:10320000886120688069296908432168886148E0ED
:103210002946206801F09CFA2068806940F400602B
:10322000216888612068806920F480602168886155
:1032300020688069296940EA01202168886130E0BE
:103240002946206801F0C2FA2068C06940F00800F1
:103250002168C8612068C06920F004002168C86145
:103260002068C069296908432168C86119E02946B6
:10327000206801F0E7FA2068C06940F40060216826
:10328000C8612068C06920F480602168C861206836
:10329000C069296940EA01202168C86101E001276D
:1032A00000BF00BF00BF002084F83C0000BF3846CC
:1032B00089E710B504460CB9012010BD94F83D0013
:1032C00028B9002084F83C00204600F025F80220B0
:1032D00084F83D00211D206801F070F9012084F878
:1032E000460000BF84F83E0001213F2001554020E8
:1032F00001554120015500BF00BF012084F8420064
:1033000043200155442001554520015500BF0120AF
:1033100084F83D000020D0E77047704770B5044640
:103320000D4615B994F83E000BE0042D02D13F2064
:10333000005D06E0082D02D14020005D01E0412043
:10334000005D012801D0012070BD1DB9022084F864
:103350003E000EE0042D03D102213F20015508E07C
:10336000082D03D102214020015502E00221412015
:10337000015501222946206801F08CF92349206873
:10338000884203D022492068884201D1012000E010
:10339000002028B12068406C40F400402168486457
:1033A0001A49206888421BD02068B0F1804F17D09E
:1033B00018492068884213D01749206888420FD0E6
:1033C0001649206888420BD011492068884207D0EE
:1033D00013492068884203D01249206888420CD1E2
:1033E0002068806800F00706062E0CD02068006870
:1033F00040F001002168086005E02068006840F0A6
:1034000001002168086000209EE7000000000140E4
:10341000000401400004004000080040000C00408F
:10342000004001400018004010B5044606492068DD
:10343000884201D1FEF758FF04492068884201D133
:1034400001F0CAFE10BD000000040040000800406A
:103450007047704770B50446002520684069C0F386
:10346000C01594F83D00212817D1B5B100BF00BFA9
:103470002168143151E8001F21F0800021681431C7
:1034800041E80002002AF3D100BF606B10B1606B0D
:10349000FEF7C1FB204601F04AFB20684069C0F3FB
:1034A000801594F83E00222817D1B5B100BF00BFA7
:1034B0002168143151E8001F21F0400021681431C7
:1034C00041E80002002AF3D100BFA06B10B1A06B4D
:1034D000FEF7A1FB204601F0E4FA002070BD704722
:1034E0002DE9F84F0446206805682068C668206802
:1034F00047694FF00009CA4605F00F09B9F1000FFE
:103500000AD105F0200038B106F0200020B1204695
:1035100001F020FBBDE8F88FB9F1000F7CD007F077
:10352000010018B906F49070002875D005F001006C
:1035300030B106F4807018B1206C40F001002064B6
:1035400005F0040030B107F0010018B1206C40F024
:103550000200206405F0020030B107F0010018B14C
:10356000206C40F00400206405F0080048B106F02B
:10357000200010B907F0010018B1206C40F00800DD
:103580002064206C002846D005F0200028B106F009
:10359000200010B1204601F0DDFA20684069C0F338
:1035A000801A206C00F0080010B9BAF1000F2DD07D
:1035B000204601F076FA2068406900F0400040287B
:1035C00020D100BF00BF2168143151E8001F21F055
:1035D00040002168143141E80002002AF3D100BF05
:1035E000A06B50B17548A16B0865A06BFEF769FB35
:1035F00088B1A06B016D88470DE02046FFF76FFF93
:1036000009E009E02046FFF76AFF04E02046FFF7E3
:1036100066FF002020647DE7206B012876D105F04D
:103620001000002872D006F010000028FAD000BF69
:10363000002000902068006800902068406800909A
:1036400000BF00BF2068406900F0400040285ED104
:10365000A06B006840681FFA80F8B8F1000F54D0E2
:10366000A08D404551DDA4F82E80A06BC069B0F557
:10367000807F43D000BF00BF21680C3151E8001F9C
:1036800021F4807021680C3141E80002002AF3D156
:1036900000BF00BF00BF2168143151E8001F21F0B6
:1036A00001002168143141E80002002AF3D100BF73
:1036B00000BF00BF2168143151E8001F21F0400015
:1036C0002168143141E80002002AF3D100BF202014
:1036D00084F83E000020206300BF00BF21680C3149
:1036E00051E8001F21F0100021680C3141E8000270
:1036F000002AF3D100BFA06BFEF78DFAA08DE28DFA
:10370000801A81B22046FFF7A4FE03E740E0A08DB7
:10371000E18D401A1FFA80F8E08DC0B3B8F1000FB8
:1037200035D000BF00BF21680C3151E8001F21F4E3
:10373000907021680C3141E80002002AF3D100BFEB
:1037400000BF00BF2168143151E8001F21F00100C3
:103750002168143141E80002002AF3D100BF202083
:1037600084F83E000020206300BF00BF21680C31B8
:1037700051E8001F21F0100021680C3141E80002DF
:10378000002AF3D100BF41462046FFF762FEC1E6A2
:1037900005F0800030B106F0800018B1204601F03D
:1037A000EBFBB7E605F0400030B106F0400018B181
:1037B000204601F0ACF9ADE600BFABE609490008D0
:1037C00010B504460CB9012010BDA06900B100E09D
:1037D00000BF94F83D0028B9002084F83C00204642
:1037E00000F028F8242084F83D002068C06820F408
:1037F00000502168C860204601F040FA2068006946
:1038000020F49040216808612068406920F02A0077
:10381000216848612068C06840F400502168C86091
:1038200000202064202084F83D0084F83E00002021
:10383000CAE7000010B586B00446142101A8FCF7C1
:1038400081FEF7492068884276D100BF00200090B1
:10385000F448006840F01000F2490860084600682B
:1038600000F01000009000BF00BF00BF00200090DB
:10387000EC481438006840F00100EA491439086047
:103880000846006800F00100009000BF00BF4FF440
:10389000C060019002200290002003900320049059
:1038A0000720059001A9E048FEF718FCDF48E04931
:1038B00008604FF0006048604021DD4881600021D1
:1038C000C1604FF480610161002141618161C1618A
:1038D00001624162FEF72AFB08B1FDF727FC00BF39
:1038E000D3486063846300BFD0487838D14908600A
:1038F0004FF0006048600021CE488160C1604FF405
:1039000080610161002141618161C16101624162A7
:10391000FEF70CFB08B1FDF709FC00BFC548A0632A
:10392000846300BF002205212520FEF79BFD252092
:10393000FEF788FD72E1FFE7BF492068884277D132
:1039400000BF00200090B748001F006840F400301E
:10395000B449091F08600846006800F40030009070
:1039600000BF00BF00BF00200090AE4814380068C0
:1039700040F00100AB49143908600846006800F0C7
:103980000100009000BF00BF0C20019002200290B7
:1039900000200390032004900720059001A9A2486D
:1039A000FEF79CFBA548A64908604FF00060486000
:1039B0000021A3488160C1604FF480610161002152
:1039C00041618161C16101624162FEF7AFFA08B1F4
:1039D000FDF7ACFB00BF9A48A063846300BF974823
:1039E0001830984908604FF00060486040219548C1
:1039F00081600021C1604FF480610161002141615B
:103A00008161C16101624162FEF790FA08B1FDF780
:103A10008DFB00BF8B486063846300BF00220521DB
:103A20002620FEF71FFD2620FEF70CFDF6E0FFE73F
:103A300085492068884279D100BF002000907948EC
:103A4000001F006840F480207649091F086008467E
:103A5000006800F48020009000BF00BF00BF00207D
:103A6000009070481438006840F002006D49143925
:103A700008600846006800F00200009000BF00BF28
:103A80004FF4406001900220029000200390032038
:103A900004900720059001A96C48FEF71FFB6748BA
:103AA00060386B4908604FF000604860002168484A
:103AB0008160C1604FF480610161002141618161D9
:103AC000C16101624162FEF731FA08B1FDF72EFBD8
:103AD00000BF5F48A063846300BF584830385D4929
:103AE00008604FF00060486040215A488160002122
:103AF000C1604FF480610161002141618161C16158
:103B000001624162FEF712FA08B1FDF70FFB00BF38
:103B100050486063846300BF002205212720FEF720
:103B2000A1FC2720FEF78EFC78E0FFE74A492068D9
:103B3000884273D100BF002000903A48006840F0EE
:103B40002000384908600846006800F02000009016
:103B500000BF00BF00BF002000903248143800684A
:103B600040F004002F49143908600846006800F04E
:103B70000400009000BF00BFC0200190022002900E
:103B800000200390032004900820059001A93348E9
:103B9000FEF7A4FA2548903831490860800548604E
:103BA00000212F488160C1604FF4806101610021D4
:103BB00041618161C16101624162FEF7B7F908B1FB
:103BC000FDF7B4FA00BF2648A063846300BF17481E
:103BD0001838244908604FF020604860402121488F
:103BE00081600021C1604FF4806101610021416169
:103BF0008161C16101624162FEF798F908B1FDF788
:103C000095FA00BF17486063846300BF0022052156
:103C10004720FEF727FC4720FEF714FC06B010BD36
:103C2000001001404438024000000240B8640240E5
:103C300060030020C0030020004400408860024070
:103C400020040020800400200048004000040240BE
:103C5000E00400204005002000140140000802405C
:103C6000A00500200006002070B504460D4616464B
:103C700094F83E00202816D105B10EB9012070BD80
:103C800000BF94F83C00012801D10220F7E7012091
:103C900084F83C0000BF00202063324629462046BD
:103CA00001F002F9EBE70220E9E7704770470000F6
:103CB000F7B50446154694F83D00202846D10198F2
:103CC00000B10DB90120FEBD00BF94F83C000128F1
:103CD00001D10220F7E7012084F83C0000BF0198E1
:103CE0002062A584E58400202064212084F83D0022
:103CF0001748616BC8631748616B08641648616BAD
:103D0000C8640020616B086501AE23681A1D316824
:103D10002B46606BFEF780F96FF040002168086069
:103D200000BF002084F83C0000BF00BF00BF216836
:103D3000143151E8001F41F080002168143141E83E
:103D40000002002AF3D100BF0020BCE70220BAE73E
:103D50003D4A0008954A00081D4900087047704711
:103D600000BFFEE710B50E480E490860032048600A
:103D700000210C488160C1604FF4002101614FF4C3
:103D8000401141610021017641768176C17601774B
:103D90004177FDF731FD08B1FDF7C8F910BD00000E
:103DA000006400407001002010B50E480E49086004
:103DB0000320486000210C488160C1604FF400215D
:103DC00001614FF440114161002101764176817615
:103DD000C17601774177FDF70FFD08B1FDF7A6F930
:103DE00010BD0000006800409801002008B500BF29
:103DF000002000902E48006840F480002C490860A4
:103E00000846006800F48000009000BF00BF00BFBB
:103E1000002000900846006840F400100860084642
:103E2000006800F40010009000BF00BF00220521D0
:103E30000C20FEF717FB0C20FEF704FB00220521E7
:103E40000E20FEF70FFB0E20FEF7FCFA00220521E4
:103E50001020FEF707FB1020FEF7F4FA00220521E0
:103E60001120FEF7FFFA1120FEF7ECFA00220521DF
:103E70003920FEF7F7FA3920FEF7E4FA002205218F
:103E80003A20FEF7EFFA3A20FEF7DCFA002205218D
:103E90004520FEF7E7FA4520FEF7D4FA0022052177
:103EA0004620FEF7DFFA4620FEF7CCFA08BD0000F8
:103EB0003038024010B5194A0021194804F0F4FCCA
:103EC00018490860184A0021184804F0EDFC184908
:103ED0000860184A0021184804F0E6FC17490860F9
:103EE000174A0021174804F0DFFC17490860174AF9
:103EF0000021174804F0D8FC16490860164A002132
:103F0000164804F0D1FC16490860164A00211648EC
:103F100004F0CAFC1549086010BD000024B3000875
:103F2000F10C00080000002048B30008BD0E000896
:103F3000040000206CB30008890D00080800002070
:103F400090B300084D4C00080C000020B4B30008EA
:103F5000ED51000810000020D8B300082109000826
:103F600014000020FCB30008ED0B0008180000202E
:103F700000B587B0142102A8FCF7E4FA00BF0020C6
:103F800001903F48006840F010003D490860084635
:103F9000006800F01000019000BF00BF00BF0020CB
:103FA00001900846006840F0040008600846006878
:103FB00000F00400019000BF00BF00BF002001908E
:103FC0000846006840F0200008600846006800F0DD
:103FD0002000019000BF00BF00BF002001900846F4
:103FE000006840F0800008600846006800F080002B
:103FF000019000BF00BF00BF00200190084600688C
:1040000040F0010008600846006800F001000190DF
:1040100000BF00BF00BF002001900846006840F0CC
:10402000020008600846006800F00200019000BF2E
:1040300000BF002260211348FEF74AF96020029079
:1040400001200390022004900120059002A90D4850
:10405000FEF744F8802002904FF48810039000206F
:10406000049002A90848FEF739F80022052117201C
:10407000FEF7F8F91720FEF7E5F907B000BD0000DC
:1040800030380240001002400014024000B587B0F2
:104090001C216846FCF756FA15481649086053205B
:1040A000486000211348816040F63301C16000215F
:1040B00001618161FEF734FE08B1FDF737F80D4864
:1040C000FFF7F7F808B1FDF731F860200090002005
:1040D000019002900490002269460648FFF767F8B5
:1040E00008B1FDF723F80348FFF730F807B000BD2B
:1040F000004401400802002000B587B00020039072
:1041000004900590069001900290144814490860AC
:10411000532048600021124881604FF6FF71C16052
:10412000002101618161FEF7FBFD08B1FCF7FEFF94
:104130004FF48050039003A90948FEF7B5FE08B17B
:10414000FCF7F4FF00200190029001A90448FEF75B
:104150008DFD08B1FCF7EAFF07B000BD0008004084
:10416000C001002010B50B480B4908604FF41650F1
:104170004860002108488160C16001610C214161F3
:1041800000218161C161FFF71BFB08B1FCF7CEFF85
:1041900010BD0000001001405002002010B50B4877
:1041A0000B4908604FF4E130486000210848816005
:1041B000C16001610C21416100218161C161FFF792
:1041C000FFFA08B1FCF7B2FF10BD00000044004048
:1041D0009402002010B50B480B4908604FF4E13001
:1041E0004860002108488160C16001610C21416183
:1041F00000218161C161FFF7E3FA08B1FCF796FF86
:1042000010BD000000480040D802002010B50B4847
:104210000B4908604FF4E130486000210848816094
:10422000C16001610C21416100218161C161FFF721
:10423000C7FA08B1FCF77AFF10BD00000014014076
:104240001C03002000BFFEE700BFFEE72DE9F041A0
:1042500005460E4614461F46E56066602046FEF79A
:104260005FFD39462046FFF759F8BDE8F0810000B0
:1042700010B500220121F7EE000A9FED0A0A0A4854
:1042800002F048FEDFED092AB0EE082ADFED081A39
:10429000B2EE041ADFED070AB1EE040A024802F09A
:1042A00044FE10BDCDCC4C3F10580020CDCCCC3DB1
:1042B0000000C843000000000EB52D4800682D49DD
:1042C0000968401A2C49086002202C49087600220F
:1042D00069462B48006805F0E7FE012820D12448F4
:1042E0000068244908602748029902F04FFD2548DC
:1042F00090ED000A214880ED000A224890ED010A65
:104300001E4880ED010A1F48007D1C4908761D48A3
:10431000407D1D4908701C2218491C48FCF7D8F83C
:1043200015480068642806D91C211448FCF70AF9CE
:1043300000201549087014480078012806D1002390
:104340001A4612491248006805F05CFD11480068E1
:1043500080474FF47A71B0FBF1F005490860002303
:104360001A460D490D48006805F04CFD0EBD0000D1
:1043700060010020640100205C010020C45800207E
:1043800024010020105800206C010020E05800207B
:104390002C010020CC00002068010020300100200A
:1043A0003EB505460C460948006868B10295ADF86F
:1043B000044007480090029830B100231A4669462D
:1043C0000248006805F0F2FD00203EBD24010020F7
:1043D0005002002070B5134600240568EC6A651C85
:1043E0005D436426B5FBF6F211B905686A630BE01C
:1043F000042902D10568AA6306E0082902D10568EC
:10440000EA6301E005682A6470BD70B504460D4694
:104410002068C06AB0FBF5F0401EE0602046FEF761
:104420007FFC2046FEF745FF70BD10B54FF0E02041
:10443000006905F0C3FF012801D005F0DFFB10BDC6
:1044400000B593B0302107A8FCF77CF8142102A82E
:10445000FCF778F800BF002001902448006840F085
:104460008050224908600846006800F080500190A2
:1044700000BF00BF00BF002001901D48006840F44D
:1044800080401B4908600846006800F480400190A5
:1044900000BF00BF012007900004089002200D908B
:1044A00041050E9104210F91A82110910221119133
:1044B0000421129107A8FEF789F908B1FCF736FE2E
:1044C0000F20029002200390002004904FF4A0508F
:1044D00005904FF480500690052102A8FEF714F8CD
:1044E00008B1FCF723FE13B000BD000040380240C5
:1044F000007000400348006840F470000149086003
:104500007047000088ED00E010B5FCF7BFFD022108
:10451000194800F0E9F90023184A49F63F4141F2F1
:104520006700FFF793FE16491648FCF78FFC164903
:104530001648FCF78BFC00231A4619461148FCF775
:104540004BFC00231A4672211048FCF745FC00235F
:104550001A460C210B48FCF73FFC00231A467E212B
:104560000A48FCF739FC0A4B17220A490A4800F0AE
:1045700063FDFCF71DFB10BDC001002008020020F8
:10458000650C000870010020510D00089801002002
:10459000A1430008D0510020D802002010B50248E5
:1045A000FEF709FD10BD00006006002010B50248AE
:1045B000FEF701FD10BD0000C001002010B502682B
:1045C000294B98420ED0B0F1804F0BD0274B984228
:1045D00008D0274B984205D0264B984202D0264B54
:1045E000984203D122F070024B681A431E4B984246
:1045F00020D0B0F1804F1DD01C4B98421AD01C4BDC
:10460000984217D01B4B984214D01B4B984211D0A4
:104610001A4B98420ED01A4B98420BD0194B984225
:1046200008D0194B984205D0184B984202D0184B2D
:10463000984203D122F44072CB681A4322F08003DF
:104640004C6943EA040202608B68C3620B688362B0
:10465000054B984202D0084B984201D10B69036385
:104660000123436110BD0000000001400004004030
:1046700000080040000C00400004014000400140E0
:10468000004401400048014000180040001C004068
:104690000020004030B501F01F05012404FA05F3A5
:1046A000046A9C430462046A01F01F0502FA05F5DE
:1046B0002C43046230BD30B50C46816821F47F4143
:1046C00042EA032525432943816030BD0A468168BB
:1046D00021F0700142F00703194381607047000028
:1046E00030B5056A25F001050562026A43688469F0
:1046F00024F0700424F003040D682C4322F002021D
:104700008D682A43104DA84200D103E00F4DA84206
:1047100006D100BF22F00802CD682A4322F004022D
:10472000094DA84202D0094DA84207D123F4807355
:1047300023F400734D692B438D692B4343608461DF
:104740004D684563026230BD000001400004014035
:1047500030B5056A25F010050562026A4368846970
:1047600024F4E04424F440740D6844EA052422F063
:1047700020028D6842EA0512124DA84200D103E0E2
:10478000114DA84207D100BF22F08002CD6842EA55
:10479000051222F040020B4DA84202D00A4DA84259
:1047A00009D123F4806323F400634D6943EA850350
:1047B0008D6943EA8503436084614D6885630262C5
:1047C00030BD0000000001400004014030B5056A22
:1047D00025F480750562026A4368C46924F0700498
:1047E00024F003040D682C4322F400728D6842EA21
:1047F0000522124DA84200D103E0114DA84207D175
:1048000000BF22F40062CD6842EA052222F48062F1
:104810000A4DA84202D00A4DA84209D123F4805380
:1048200023F400534D6943EA05138D6943EA0513E8
:104830004360C4614D68C563026230BD0000014041
:104840000004014030B5056A25F480550562036A0D
:104850004468C26922F4E04222F440720D6842EAE0
:10486000052223F400538D6843EA0533084DA8421E
:1048700002D0084DA84204D124F480444D6944EA92
:1048800085144460C2614D680564036230BD000058
:10489000000001400004014030B50B461446026A96
:1048A000056A25F001050562816921F0F00141EA00
:1048B000041122F00A021A438161026230BD30B550
:1048C0000B461446056A25F0100505628169026AE7
:1048D00021F4704141EA043122F0A00242EA0312BD
:1048E0008161026230BD000070B504460D46054886
:1048F0000460057101460868FEF782FA08B1FCF70A
:1049000018FC70BD4801002070B50546AC6B002056
:10491000E085E0842046FEF7E2FD70BD70B50646F6
:104920000025B46B20684069C0F3C01594F83D00C1
:10493000212805D125B10020E084204600F0F7F8B9
:1049400020684069C0F3801594F83E00222805D104
:1049500025B10020E085204600F0A3F8206C40F04F
:10496000100020642046FEF7BAFD70BD70B5054604
:10497000AC6B2868006800F48070002842D1E085A4
:1049800000BF00BF21680C3151E8001F21F4807086
:1049900021680C3141E80002002AF3D100BF00BFBA
:1049A00000BF2168143151E8001F21F00100216887
:1049B000143141E80002002AF3D100BF00BF00BF5C
:1049C0002168143151E8001F21F0400021681431A2
:1049D00041E80002002AF3D100BF202084F83E0005
:1049E000206B01280ED100BF00BF21680C3151E8B7
:1049F000001F21F0100021680C3141E80002002A5C
:104A0000F3D100BF206B012804D1A18D2046FEF711
:104A100020FD02E02046FFF748F970BD70B505465D
:104A2000AC6B206B012805D1A08D41082046FEF714
:104A300010FD02E02046FFF739F970BD70B505465C
:104A4000AC6B2868006800F48070F8B90020E0843E
:104A500000BF00BF2168143151E8001F21F0800021
:104A60002168143141E80002002AF3D100BF00BFE1
:104A700000BF21680C3151E8001F41F0400021685F
:104A80000C3141E80002002AF3D102E02046FFF792
:104A900065F970BD70B50446A56B2846FFF75FF950
:104AA00070BD00BF00BF02680C3252E8002F22F434
:104AB000907102680C3242E80013002BF3D100BF62
:104AC00000BF00BF0268143252E8002F22F001013B
:104AD0000268143242E80013002BF3D100BF016BCF
:104AE00001290ED100BF00BF02680C3252E8002F2E
:104AF00022F0100102680C3242E80013002BF3D1BF
:104B000000BF202180F83E1000210163704710B5DE
:104B100004462068C06820F040002168C86020205A
:104B200084F83D002046FFF719F9002010BD00BFB2
:104B300000BF02680C3252E8002F22F0C001026868
:104B40000C3242E80013002BF3D100BF202180F883
:104B50003D107047F8B5044694F83E00222873D102
:104B6000A068B0F5805F0CD1206950B90025A66A15
:104B700020684068C0F308003080A06A801CA062F2
:104B800015E0A56A0026A068B0F5805F03D0A06894
:104B900028B9206918B920684068287004E02068A6
:104BA000406800F07F002870A06A401CA062E08D81
:104BB000401E80B2E085002844D12068C06820F003
:104BC00020002168C8602068C06820F480702168D7
:104BD000C8602068406920F00100216848612020F9
:104BE00084F83E00206B012826D10020206300BFFE
:104BF00000BF21680C3151E8001F21F0100021682E
:104C00000C3141E80002002AF3D100BF206800689F
:104C100000F0100010280AD100BF0020009020688A
:104C20000068009020684068009000BF00BFA18D20
:104C30002046FEF70EFC02E02046FFF736F8002083
:104C4000F8BD01E00020FBE70220F9E70EB500BF48
:104C50004FF0FF3269460848006805F025FA012840
:104C600005D1BDF8042002990098FFF721F8012032
:104C700003F0C5FDECE70000200100202DE9F84F0E
:104C800004462068006920F44050E1680843216828
:104C900008612169A068084361690843E169084324
:104CA00000902068C06849F20C618843009908436D
:104CB0002168C8602068406920F44070A1690843F9
:104CC0002168486176492068884203D07549206888
:104CD000884203D1FDF712FD814602E0FDF7FEFC9C
:104CE0008146E069B0F5004F6CD102206168A0FBFD
:104CF000015003461920A9FB007001462A46384698
:104D0000FBF72AFB6421B0FBF1F04FEA001A022006
:104D10006168A0FB01510B461920A9FB00712A46CE
:104D20003846FBF719FB834602206168A0FB01505F
:104D300003461920A9FB00712A463846FBF70CFBF5
:104D40006421B0FBF1F000EBC00101EB0010ABEB14
:104D50008000322101EBC0006421B0FBF1F000F0D3
:104D6000F8000AEB400A02206168A0FB01500346EC
:104D70001920A9FB007001462A463846FBF7ECFAD9
:104D8000834602206168A0FB015003461920A9FB5D
:104D900000712A463846FBF7DFFA6421B0FBF1F0D8
:104DA00000EBC00101EB0010ABEB8000322101EB06
:104DB000C0006421B0FBF1F000F00700504421680E
:104DC00088606AE004206168A0FB01500346192056
:104DD000A9FB007001462A463846FBF7BDFA824619
:104DE00004206168A0FB015003461920A9FB007054
:104DF00001462A463846FBF7AFFA6421B0FBF1F0D2
:104E000000EBC00101EB0010AAEB8000322101EBA6
:104E100000106421B0FBF1F000F0F00A042061689A
:104E2000A0FB017003461920A9FB00513A46284611
:104E3000FBF792FA6421B0FBF1F00AEB001A0420B0
:104E40006168A0FB01510B461920A9FB00712A469D
:104E50003846FBF781FA834604206168A0FB0150C5
:104E600003461920A9FB007001462A463846FBF785
:104E700073FA6421B0FBF1F000EBC00101EB00100C
:104E8000ABEB8000322101EB00106421B0FBF1F0AC
:104E900000F00F00504421688860BDE8F88F0000E2
:104EA000001001400014014077B581B0044615465A
:104EB0000298A062A58500202064222084F83E008C
:104EC0002A48A16BC8632A48A16B08642948A16BD2
:104ED000C8640020A16B086502AE32682368191D02
:104EE0002B46A06BFDF798F800BF002000902068CB
:104EF0000068009020684068009000BF00BF00BFBD
:104F0000002084F83C0000BF206970B100BF00BFE2
:104F100021680C3151E8001F41F4807021680C3188
:104F200041E80002002AF3D100BF00BF00BF2168A2
:104F3000143151E8001F41F001002168143141E8AB
:104F40000002002AF3D100BF00BF00BF2168143166
:104F500051E8001F41F040002168143141E800028F
:104F6000002AF3D100BF002004B070BD6D490008D5
:104F70001D4A00081D490008014691F83D002128FE
:104F800028D18868B0F5805F0BD1086948B90A6AF2
:104F90001088C0F308000B685860086A801C08621B
:104FA00005E00B6A581C086218780B685860C88CBA
:104FB000401E80B2C88458B90868C06820F08000DC
:104FC0000B68D8600868C06840F040000B68D86083
:104FD000002070470220FCE710B50348FEF780FA76
:104FE000024800F0C5F810BD50020020B457002060
:104FF00010B50348FEF774FA024800F0B9F810BD86
:1050000094020020C457002010B50348FEF768FA48
:10501000024800F0ADF810BDD8020020D45700209F
:1050200010B50348FEF75CFA024800F0A1F810BD85
:105030001C030020E4570020F8B504460D46164630
:105040001F460CB9FCF772F84149206888421BD111
:105050004048046085608680C76000BF00200090E3
:1050600020680068009020684068009000BF00BF82
:105070002068C06840F010002168C86032462946A8
:105080002046FEF7F1FD61E03349206888421BD1DC
:105090003248046085608680C76000BF00200090B1
:1050A00020680068009020684068009000BF00BF42
:1050B0002068C06840F010002168C8603246294668
:1050C0002046FEF7D1FD41E02549206888421BD1EA
:1050D0002448046085608680C76000BF002000907F
:1050E00020680068009020684068009000BF00BF02
:1050F0002068C06840F010002168C8603246294628
:105100002046FEF7B1FD21E01749206888421BD1F7
:105110001648046085608680C76000BF002000904C
:1051200020680068009020684068009000BF00BFC1
:105130002068C06840F010002168C86032462946E7
:105140002046FEF791FD01E0FBF7F0FFF8BD0000FF
:1051500000100140B457002000440040C457002014
:1051600000480040D457002000140140E4570020BC
:1051700010B50446206800680068C0F3001010B144
:10518000204600F001F810BD38B5044600BF0020ED
:1051900000902068006800680090206800684068FF
:1051A000009000BF00BF2068FEF754F9A088216876
:1051B000896B09684968401A06490880E06818B197
:1051C0000988D4E902029047A288A1682068FEF706
:1051D0004BFD38BD5001002002480068401C0149C9
:1051E000086070474401002000BFFEE700BF0120B7
:1051F00003F005FBFBE7000010B52DED048BB7EEC7
:10520000080A8A4880ED150AB0EE080A80ED000A07
:10521000B0EE080A80ED010AB1EE000A80ED050A41
:10522000DFED832A9FED832ADFED831A9FED801A3D
:10523000DFED820AB2EE080A002100F017FCDFED74
:105240007C2A9FED7C2ADFED7C1A9FED791ADFED39
:105250007B0AB2EE080A0121744800F007FCDFED7A
:10526000742A9FED742ADFED741A9FED711ADFED39
:10527000730AB2EE080A02216C4800F0F7FBDFED7A
:105280006C2A9FED6C2ADFED6C1A9FED691ADFED39
:105290006B0AB2EE080A0321644800F0E7FBDFED79
:1052A000682A9FED682ADFED641A9FED651ADFED2D
:1052B000600A9FED650A04215C4800F0D7FBDFED32
:1052C000602A9FED602ADFED5C1A9FED5D1ADFED2D
:1052D000580A9FED5D0A0521544800F0C7FBDFED39
:1052E000582A9FED582ADFED541A9FED551ADFED2D
:1052F000500A9FED550A06214C4800F0B7FBDFED40
:10530000502A9FED502ADFED4C1A9FED4D1ADFED2C
:10531000480A9FED4D0A0721444800F0A7FB0123EE
:105320001A46F7EE000A9FED490A00213F4800F0B7
:105330002BFB01231A46F7EE000A9FED440A19469B
:105340003A4800F021FB01231A46F7EE000A9FEDD0
:105350003F0A0221354800F017FB01231A46F7EEF9
:10536000000A9FED3A0A0321304800F00DFB0023AC
:105370000122DFED320A9FED350A04212B4800F0AF
:1053800003FB00230122DFED2D0A9FED300A0521EA
:10539000264800F0F9FA00230122DFED280A9FEDEC
:1053A0002B0A0621214800F0EFFA00230122DFED4D
:1053B000230A9FED260A07211C4800F0E5FA9FED1D
:1053C000240AB0EE408A9FED220AF0EE408A9FED5B
:1053D000210AB0EE409A9FED200AF0EE409ABCEE12
:1053E000C80A10EE100A81B21C4800F05EF9BCEE4B
:1053F000E80A10EE100A81B218482C3000F055F976
:10540000BCEEC90A10EE100A81B21448583000F000
:105410004CF9BCEEE90A10EE100A81B20F48843054
:1054200000F043F9BDEC048B10BD0000E8510020F2
:10543000000000000060EA460000C843CDCCCC3D2F
:10544000CDCC4C3E0000FA440000F042CDCC4C3FA5
:10545000610B3645610B764589884845E04F002051
:1054600070B52DED028B04460D466878297840EA28
:1054700001202082207F38B3208A00EE100AB8EE87
:10548000400AD4ED060A30EE600ADFED2A0AB4EED7
:10549000E00AF1EE10FA03D2206A401C20621CE000
:1054A000208A00EE100AB8EE400AD4ED060A30EE6B
:1054B000600ADFED210AB4EEE00AF1EE10FA0CDD2D
:1054C000206A401E206208E0208A00EE100AB8EE32
:1054D000400A84ED020A01202077208A00EE100A9B
:1054E000B8EE400A84ED060A218A206A01EB4030BA
:1054F00000EE100AB8EEC00AD4ED020A30EE600ADF
:10550000BDEEC08A2068416A20468847F8EEC80A86
:10551000C0EE808A206881692046884700EE100A24
:10552000B8EE400AC8EE800AC4ED050ABDEC028B55
:1055300070BD0000000080C50000804510B5044625
:10554000204602F060F8044610BDCA788B7842EA23
:10555000032212B2828470470E4A026001719FEDED
:105560000E0A80ED020A9FED0C0A80ED030A00226C
:1055700002829FED090A80ED050A9FED070A80ED82
:10558000060A0277026200BF044A02600022828497
:105590007047000068B5000800000000E0B5000892
:1055A00000BF00BF00BF704770B5044600251A4811
:1055B000006858B3E06B28B9174800688047E0637B
:1055C000012070BD1448006880470546E06BA84282
:1055D00009D9681EE16B401A00EE100AB8EE400AC5
:1055E00084ED0E0A07E0E06B281A00EE100AB8EE10
:1055F000400A84ED0E0AE56394ED0E0ADFED070A1A
:1056000020EE200A84ED0E0A0020DAE79FED040A5E
:1056100084ED0E0A0120D4E7D4000020BD37863582
:1056200000000000014619B10248016001207047E6
:105630000020FCE7D4000020B0EE401A9FED050AE0
:1056400060EE801A9FED040A21EE002A81EE820AA4
:105650007047000000007042DA0FC94070B52DEDB0
:10566000028B04460D462068816A20468847B0EECA
:10567000408A2068816A20468847B1EE400AF0EEF1
:10568000408AF0EE480A04F10C0005F06BF994ED45
:10569000030ABDEEC00A10EE100A02B229462046E7
:1056A00001F0E8FFBDEC028B70BD024600EE101A5F
:1056B000B8EE400A82ED020A00EE101AB8EE400A77
:1056C00082ED060A01201077108A704770B50446F3
:1056D0000D4620682946C269204690472068294621
:1056E000026B204690476879297940EA012000B290
:1056F000E084A87984F8280070BD000070B50446E5
:105700000E46254631462846FFF726FF0546064841
:10571000286000BF2C46054828600020E08484F8FB
:105720002800204670BD0000E0B600081CB6000846
:1057300010B50446204601F066FF0446204610BD21
:1057400000B50146B0EE402AB0EE420A084600F02D
:1057500004F8084600F008F800BDD0ED010AC0EDDD
:10576000020A80ED010A704790ED010AD0ED000AAF
:1057700020EE200AD0ED020A90ED001AF7EE001A92
:1057800031EEC11A00EE810A7047000080ED000A78
:10579000DFED030AC0ED020AC0ED010A7047000008
:1057A0000000000070B505460C462168491EC1EB9B
:1057B000C101484A02EBC10001F050FF064605F066
:1057C000F2F8642869DA4448006858B9012042496F
:1057D00008604248006880474FF47A71B0FBF1F0EE
:1057E0003F4908603D48006880474FF47A71B0FB3C
:1057F000F1F03B490968401AB0F5FA6F33D92068D7
:10580000012806D002280DD0032816D0042828D15C
:105810001CE095ED140AF0EE000A80EE201A84EDEB
:10582000021A1FE095ED140AB1EE400AF0EE000AEC
:1058300080EE201A84ED021A14E095ED140AF0EEC1
:10584000000A80EE201A84ED021A0BE095ED140A8E
:10585000B1EE400AF0EE000A80EE201A84ED021A42
:1058600000E000BF35E0D4ED010AB0EE600A05F0BB
:105870008DF8DFED1C0AB4EEE00AF1EE10FA28D242
:1058800094ED030AD5ED310AF8EEE00A9FED161A01
:1058900000EEC10A84ED020A1BE0D4ED010AB0EE6D
:1058A000600A05F073F8DFED0F0AB4EEE00AF1EEDE
:1058B00010FA0BD294ED030AD5ED310AF8EEE00AA6
:1058C0009FED091A00EEC10A84ED020A0020024988
:1058D000086070BD90500020F0000020D40000202F
:1058E000F40000200000C8420000B44310B5044694
:1058F0002049214804F0B8FF20480068012804DA54
:105900001F49204804F0E6FF2DE01C4800680128EC
:1059100009DB1A480068022805DA194938311948A4
:1059200004F0D8FF1FE015480068022809DB13487F
:105930000068032805DA12497031124804F0CAFFE2
:1059400011E00E480068032809DB0C4800680428B1
:1059500005DA0B49A8310B4804F0BCFF03E04FF017
:10596000FF300649086005480068401C034908608C
:10597000002010BDE04F002070010020D800002062
:1059800090500020980100202DE9F0412DED028B70
:1059900004460D46B0EE408AF0EE608A16461F4679
:1059A000082D5DD2DFE805F0303B4651040F1A2583
:1059B0003A463146F0EE680AB0EE480A04F52B701C
:1059C00001F002F84DE03A463146F0EE680AB0EEDA
:1059D000480A04F5497000F0F7FF42E03A463146C4
:1059E000F0EE680AB0EE480A04F5677000F0ECFFCC
:1059F00037E03A463146F0EE680AB0EE480A04F263
:105A0000144000F0E1FF2CE03A463146F0EE680A1F
:105A1000B0EE480A04F1CC0000F0D6FF21E03A468F
:105A20003146F0EE680AB0EE480A04F5A27000F0C4
:105A3000CBFF16E03A463146F0EE680AB0EE480A6F
:105A400004F5DE7000F0C0FF0BE03A463146F0EEA0
:105A5000680AB0EE480A04F50D7000F0B5FF00E0EA
:105A600000BF00BFBDEC028BBDE8F08170B52DED2D
:105A7000068B04460D46B0EE408AF0EE608AB0EE2A
:105A8000419AF0EE619AB0EE42AAF0EE62AA082DB9
:105A90007CD2DFE805F00415263748596A7CF0EE21
:105AA0006A2AB0EE4A2AF0EE691AB0EE491AF0EE10
:105AB000680AB0EE480A04F1CC0000F08CFF78E0F0
:105AC000F0EE6A2AB0EE4A2AF0EE691AB0EE491AF0
:105AD000F0EE680AB0EE480A04F5A27000F07BFF11
