:020000040800F2
:10000000806000203903000839430008ED3D0008F6
:1000100035430008910C00088953000800000000D7
:10002000000000000000000000000000790200084D
:100030007D11000800000000D5020008B14500084D
:100040005303000853030008530300085303000838
:100050005303000853030008530300085303000828
:100060005303000853030008530300085303000818
:100070005D0F0008530300086D0F000853030008CC
:100080007D0F00088D0F000853030008710D000854
:10009000950C000853030008530300087F11000863
:1000A00053030008530300085303000853030008D8
:1000B0005303000829470008394700085303000884
:1000C00053030008530300085303000853030008B8
:1000D000530300087951000891510008A951000804
:1000E0005303000853030008530300085303000898
:1000F0005303000853030008530300085303000888
:100100005303000853030008530300085303000877
:100110005303000853030008530300085303000867
:10012000530300089D0F0008AD0F0008530300089B
:10013000530300085303000853030008090E000886
:10014000810D0008530300085303000853030008FF
:1001500053030008BD0F0008CD0F0008C15100086F
:100160005303000853030008530300085303000817
:100170005303000853030008530300080000000065
:10018000530300085303000800F002F800F065F87C
:100190000AA090E8000C82448344AAF10107DA45E2
:1001A00001D100F05AF8AFF2090EBAE80F0013F0CF
:1001B000010F18BFFB1A43F00103184784B7000072
:1001C000A4B700000A444FF0000C10F8013B13F0F4
:1001D000070408BF10F8014B1D1108BF10F8015BA0
:1001E000641E05D010F8016B641E01F8016BF9D193
:1001F00013F0080F1EBF10F8014BAD1C0C1B09D1EA
:100200006D1E58BF01F801CBFAD505E014F8016B5B
:1002100001F8016B6D1EF9D59142D6D370470000ED
:100220000023002400250026103A28BF78C1FBD8FF
:10023000520728BF30C148BF0B6070471FB50BF095
:1002400039F99DE8030000F087FA00F0B5F91FBD09
:1002500010B5002007F08DFB10BD00F0BFFA11466D
:10026000FFF7ECFF08F079FB00F0F7FA03B4FFF7B3
:10027000EFFF03BC00F0ACFA2C4B19680868B0E83B
:10028000F04F80F30988BFF36F8F4FF0000080F3C9
:10029000118870470000000008480068006880F37B
:1002A00008884FF0000080F3148862B661B6BFF38F
:1002B0004F8FBFF36F8F00DF00BF00BF08ED00E07E
:1002C000DFF80C00016841F470010160704700BF65
:1002D00088ED00E0EFF30980BFF36F8F134B1A68CE
:1002E0001EF0100F08BF20ED108A20E9F04F1060BB
:1002F00009B44FF0500080F31188BFF34F8FBFF364
:100300006F8F09F051FC4FF0000080F3118809BC99
:1003100019680868B0E8F04F1EF0100F08BFB0EC85
:10032000108A80F30988BFF36F8F70473400002074
:10033000EFF30580704700000948804709480047EF
:10034000FEE7FEE7FEE7FEE7FEE7FEE7FEE7FEE785
:10035000FEE7FEE704480549054A064B70470000E2
:100360008146000889010008805A00208060002032
:10037000805C0020805C002053EA020C00F0698061
:100380002DE9F04B4FF00006002B1FBFB3FA83F5A9
:1003900003FA05F424FA05F65E4012BF1643B2FADA
:1003A00082F502FA05F4C5F120051EBF22FA05FC0C
:1003B00044EA0C04203556EA044C4FEA144418BFB2
:1003C000641C4FF000084FF00009904271EB030CE1
:1003D00039D3002919BFB1FA81F701FA07F6B0FA4B
:1003E00080F700FA07F6C7F120071EBF20FA07FCC6
:1003F00046EA0C062037B6FBF4FCA7EB0507103FD6
:1004000007F01F0BCBF120060CFA0BFB2CFA06F6BB
:1004100044BFB3460026202FA4BF5E464FF0000B1A
:100420005BEA060C08BF4FF0010B19EB0B09ABFBA5
:10043000027C48EB0608C01B06FB02CC0BFB03CC7E
:1004400071EB0C01C1E70B46024641464846BDE848
:10045000F08B13B54FF000004FF00001AFF30080B8
:10046000BDE81C407047032A40F2308010F0030CB6
:1004700000F0158011F8013BBCF1020F624498BFF7
:1004800011F801CB00F8013B38BF11F8013BA2F194
:10049000040298BF00F801CB38BF00F8013B11F00F
:1004A000030300F02580083AC0F0088051F8043BAF
:1004B000083A51F804CBA0E80810F5E7121D5CBF1C
:1004C00051F8043B40F8043BAFF30080D20724BF4F
:1004D00011F8013B11F801CB48BF11F8012B24BFE3
:1004E00000F8013B00F801CB48BF00F8012B704732
:1004F00010B5203AC0F00B80B1E81850203AA0E8BF
:100500001850B1E81850A0E81850BFF4F5AF5FEAF2
:10051000027C24BFB1E81850A0E8185044BF18C9A5
:1005200018C0BDE810405FEA827C24BF51F8043B4C
:1005300040F8043B08BF7047D20728BF31F8023BA0
:1005400048BF11F8012B28BF20F8023B48BF00F834
:10055000012B704702F0FF0343EA032242EA024202
:1005600000F0B5B84FF0000200B513469446964629
:10057000203922BFA0E80C50A0E80C50B1F12001B6
:10058000BFF4F7AF090728BFA0E80C5048BF0CC064
:100590005DF804EB890028BF40F8042B08BF7047C2
:1005A00048BF20F8022B11F0804F18BF00F8012B34
:1005B000704770477047704770B5064C7C44064DD5
:1005C0007D4403E0206820448047241DAC42F9D1DB
:1005D00070BD0000A0B30000B4B300002DE9F041ED
:1005E00017460E46054633B107FB0354E41B20466D
:1005F000B047A542FAD1A5F10800BDE8F08100009E
:1006000000487047545A002070B5064600F084F840
:10061000056806F10B0020F00704B4429CBF0020DF
:1006200070BD2B466A68BAB11068A04210D304F1BD
:10063000080188423CBF5068586007D351681019C0
:1006400041601168091B016058601460101D70BD85
:1006500013465268002AE7D12146284600F068F880
:100660000028DED170BD70B50446051F00F054F8B7
:100670000068002C14BF446870BD002C18BFAC4249
:100680003CBF20466468F8D301680A18AA4218BF24
:10069000456003D12A680546114401602868411964
:1006A000A1421CBF6C6070BD61686960216808442C
:1006B000286070BD10B500F033F8006810BD10B5AB
:1006C000044600F02DF8046010BD4FF0000204292C
:1006D000C0F0128010F0030C3FF446AFCCF1040CD4
:1006E000BCF1020F18BF00F8012BA8BF20F8022BA5
:1006F000A1EB0C01FFF738BF5FEAC17C24BF00F813
:10070000012B00F8012B48BF00F8012B70470000B7
:10071000004870471C5A002000487047245A0020A7
:10072000004870471C5A0020704770477047704758
:1007300038B504460A4600206946AFF30080002819
:1007400008BF38BD02460099204600F06CF8012031
:1007500038BD012000F0A0B8F8B5AFF30080054621
:1007600000200C46102000BF0646A819A0420DD953
:10077000324669460020AFF30080070008BF00F052
:100780008BF80098A04218BF0546C419FFF7C4FFB4
:1007900005600746F01D20F007004619284600F0C6
:1007A0000AF8B44208BFF8BDA21B31463868BDE85C
:1007B000F84000F038B800210160C0E9011070472E
:1007C00010207047002801D000F002B870470000E8
:1007D00001491820ABBEFEE7260002007546FFF770
:1007E00097FFAE4605006946534620F00700854650
:1007F00018B020B5FFF7AEFDBDE820404FF0000671
:100800004FF000074FF000084FF0000B21F00701F8
:10081000AC46ACE8C009ACE8C009ACE8C009ACE83B
:10082000C0098D467047034640688C46002818BFB3
:1008300088423CBF03464068F8D318681844884291
:1008400007D00CF1030020F00700001D411A521AD6
:100850000146081D0A60FFF706BF0446AFF300809B
:100860002046FFF703FD70B505460C460A2000E060
:100870006D1C00F018F835B128780028F8D102E096
:10088000641C00F010F814B120780028F8D1BDE8FD
:1008900070400A2000F007B810B500F00DF8BDE870
:1008A0001040FFF78FBF08B569468DF800000320A0
:1008B000ABBE08BD7047000010B5012805D000216F
:1008C00003A0FFF7D0FF012010BD09A1F8E7000049
:1008D00053494752544D454D3A204F7574206F6629
:1008E0002068656170206D656D6F72790000000091
:1008F0003A2048656170206D656D6F727920636F75
:10090000727275707465640010B5044604232C225D
:1009100002490348FFF762FE10BD0000D1580008ED
:100920000050002010B50446042338220249034831
:10093000FFF754FE10BD0000C9730008B05000203E
:100940002DED068B8CB001208DF8200064200990DD
:100950000A9000200B9008A803F0E0FD044600BFB9
:10096000204603F0EFFD9A4A1289A2F2DC510029D9
:1009700001DB0A4600E04A42642A4ADA944A528974
:10098000A2F2DC50002801DB024600E04242642A69
:100990003FDA8F48008940F2B951884209DD8C481E
:1009A000008940F2FF51884203DA40F2DC50884966
:1009B00008818748408940F2B951884209DD84485E
:1009C000408940F2FF51884203DA40F2DC5080490E
:1009D00048817F48808940F2B951884209DD7C48CE
:1009E000808940F2FF51884203DA40F2DC507849B6
:1009F00088817748C08940F2B951884209DD74483E
:100A0000C08940F2FF51884203DA40F2DC5070495D
:100A1000C8816F48008948B96D48408930B96C4831
:100A2000808918B96A48C08900287DD06848008844
:100A300040F29E71884278DD6548008840F60201E8
:100A4000884272DA6248C08840F2B631884201DDDD
:100A5000012000E000205E49C98840F21A4291421C
:100A600001DA012100E00021084000287CD058482C
:100A7000808840F2B631884209DD5548808840F2CE
:100A80001A41884203DA02208DF81C0022E0504807
:100A9000808840F2AA51884209DD4D48808840F2A2
:100AA0000E61884203DA00208DF81C0012E04848ED
:100AB000808840F29E71884209DD4548808840F672
:100AC0000201884203DA01208DF81C0002E00220B6
:100AD0008DF81C003E494989A1F2DC500AF0CBFA9E
:100AE00041EC1A0B9FED3B0B53EC102B0AF03CF939
:100AF00041EC190B9FED390B53EC102B0AF0E6FA81
:100B000041EC180B0AF056F8019031490989A1F21D
:100B1000DC500AF0B0FA41EC1A0B9FED2E0B53ECAF
:100B2000102B0AF021F901E049E04CE041EC190BEF
:100B30009FED2A0B53EC102B0AF0C8FA41EC180B6E
:100B40000AF038F8029022498989A1F2DC500AF0B3
:100B500092FA41EC1A0B9FED1F0B53EC102B0AF08D
:100B600003F941EC190B00E012E09FED1E0B53EC72
:100B7000102B0AF0ABFA41EC180B0AF01BF80690A8
:100B800000231A4601A91948006809F00DFA1AE075
:100B90000F48C08840F29E71884201DD012000E0CC
:100BA00000200B49C98840F60202914201DA012176
:100BB00000E00021084030B103F0F6FB03E01C2107
:100BC00001A8FFF7CFFC012007F0EBFEC8E600000C
:100BD0009C4F00200000000000407F40000000000B
:100BE000000008400000000000001040300100201C
:100BF00010B5002211460B4803F064FC04F0CCFB56
:100C000003F0AEFB084806F0C7FC074806F07CFC82
:100C1000054806F081F9044804F0D4FD024806F0C6
:100C2000E7FC10BD180200209511000808B5154812
:100C3000007800F0010070B9124806F0BBFE50B118
:100C400011487E210170EF2141704121817000BF68
:100C50000C48AFF3008000BF0020009000226946DE
:100C60000A48006809F0F2FA012803D10648009901
:100C700006F0A1FC0448009906F09DFC012007F055
:100C800090FEE9E75C010020D859002034010020E3
:100C900000BFFEE710B5024800F0BCFC10BD00002C
:100CA0007401002010B50446A06880BB40F2062203
:100CB0002068811A90421CD005DC022808D0A0F2DE
:100CC000052018BB0AE001291AD0022927D11FE00C
:100CD00004F11C01134806F00FFD20E004F11C0193
:100CE000114804F0C3FD11480068401C0F4908601A
:100CF00015E004F11C010C482C3004F0B7FD0EE0A7
:100D000004F11C010848583004F0B0FD07E007E08A
:100D100004F11C010448843004F0A8FD00BF00BFAA
:100D200010BD000034570020005000203C0100207E
:100D30001FB500BF4FF0FF3269460B48006809F04D
:100D400085FA0128F6D100BF084800F048FCC4B27B
:100D5000002CF9D09DF80430009881B20DF1050205
:100D6000024807F0D1FDE5E71C01002074010020D6
:100D700010B5024800F04EFC10BD000074010020C8
:100D800010B5024800F046FC10BD00009C01002098
:100D900010B50446A068042812D12146094806F07F
:100DA000C5F921460748383006F0C0F92146054804
:100DB000703006F0BBF921460248A83006F0B6F9BB
:100DC00010BD0000B05000201FB500BF4FF0FF3233
:100DD00069460B48006809F039FA0128F6D100BFCE
:100DE000084800F0FCFBC4B2002CF9D09DF8043098
:100DF0000DF105020348009907F068FDE6E70000E1
:100E0000200100209C01002010B5024800F002FCE7
:100E100010BD00009C010020F0B58BB007460C46C9
:100E200015461E4604F0020080B1E8040190E80077
:100E300004F0030140EA41000290F0040390F00046
:100E400004F0030140EA4100049009E068010190C8
:100E5000A007400F029070010390A007400F04907C
:100E6000E0100690C4F38000059001200990002056
:100E70000790012008900E200A9001A9384600F042
:100E800051FA08B100F080F90BB0F0BD70B504461E
:100E90000D46204600F0BFFE08B100F075F90121B3
:100EA000204600F085F908B100F06EF902212046D5
:100EB00000F07EF908B100F067F91021204600F03B
:100EC00077F908B100F060F908492068884203D139
:100ED00007480560002070BD06492068884203D19C
:100EE000054805600020F6E70120F4E700640040B3
:100EF00040010020006800404401002088B001202B
:100F00008DF810006420059006900020079004A83A
:100F100003F004FB044600BF00220D490D480068A1
:100F200009F094F901280CD1094B0C330FCB8DE853
:100F30000F0007480EC8084805F076FB064804F085
:100F4000A5FD204603F0FEFA012007F02AFDE3E7A5
:100F500014590020300100200852002010B502482A
:100F600000F0FAFE10BD00000005002010B5024898
:100F700000F0F2FE10BD00006005002010B5024830
:100F800000F0EAFE10BD00004004002010B5024849
:100F900000F0E2FE10BD0000A004002010B50248E1
:100FA00000F0DAFE10BD0000C005002010B50248B8
:100FB00000F0D2FE10BD0000E003002010B5024892
:100FC00000F0CAFE10BD00002006002010B5024847
:100FD00000F0C2FE10BD000080030020014608782A
:100FE00010381823B0FBF3F20848805CC865032A68
:100FF00005D908686FF30900001D886503E00868DB
:101000006FF309008865886D70470000E8B5000837
:10101000014600208A6A8B69CBB932B1012A0DD012
:10102000022A03D0032A10D10EE000BFCB6A03F0DE
:101030008073B3F1807F00D1012007E0CB6AB3F168
:10104000C07F00D1012001E000E000BF34E08B69E7
:10105000B3F5005F1AD132B1012A07D0022A03D0BA
:10106000032A11D10AE000BF01200EE0CB6A03F091
:101070008073B3F1807F00D1012006E0CB6AB3F129
:10108000C07F00D1012000E000BF15E032B1012A8D
:1010900005D0022A04D0032A0CD103E000BF00BF10
:1010A000012008E0CB6A03F08073B3F1807F00D1A8
:1010B000012000E000BF00BF704730B5046824681D
:1010C00024F4802405682C60046863608468402CE4
:1010D00004D10468A2600468E16003E00468A160D0
:1010E0000468E26030BD000010B500221021082025
:1010F00008F070FE1949086000221021082008F04D
:1011000069FE1749086000220C21042008F062FEE5
:101110001449086000220C21042008F05BFE1249EB
:10112000086000221C21042008F054FE0F490860CA
:1011300000221C21042008F04DFE0D490860002209
:101140000421022008F046FE0A490860002201211D
:10115000172008F03FFE0849086010BD1C01002060
:101160002001002024010020280100202C01002063
:10117000300100203401002038010020704710B5F4
:10118000802000F0D3FF10BD72B600BFFEE700BFA5
:10119000FEE70000044800680068406A03490968E7
:1011A000C1EB0141084470474C0100204801002078
:1011B00010B5024692F82030012B01D0022B06D147
:1011C00010684069084314686061002010BD506ACF
:1011D00040F4802050620120F8E7F0B504460D4647
:1011E0001E4694F8207020688368A86800B900E063
:1011F00000BF012F01D0022F7DD103F0806030B9F4
:1012000003F0006018B903F0805000287ED0C3F3CB
:101210000161012088403060A86860B9B5F800C05D
:10122000E86840EA4C5C206800F5C07000EB0110F3
:10123000C0F800C00FE0D5E901C040EACC00D5F805
:101240000CC040EA0C00D4F800C00CF5C07C0CEBDC
:10125000011CCCF80000D5F810C0206800F5C07063
:1012600000EB0110C0F804C0287D01280ED12068D1
:1012700000F5C07000EB0110406840F4807C2068ED
:1012800000F5C07000EB0110C0F804C0D079000672
:1012900092F806C040EA0C4092F805C040EA0C20E3
:1012A00092F804C040EA0C00D4F800C00CF5C07CF1
:1012B0000CEB011CCCF80C00D078000692F802C0B0
:1012C00040EA0C4092F801C040EA0C2092F800C0BD
:1012D00040EA0C00D4F800C00CF5C07C0CEB011CFB
:1012E000CCF80800206800F5C07000EB0110006821
:1012F00040F0010C01E00FE008E0206800F5C0704C
:1013000000EB0110C0F800C00020F0BD606A40F49E
:10131000001060620120F8E7606A40F4802060629B
:101320000120F2E7F0B504460A46216894F82050FF
:10133000012D01D0022D7ED1424901F500710868CE
:1013400040F001000860086820F47C5008600868DC
:10135000566A40EA06200860107D00F01F06012052
:1013600000FA06F3C8699843C861A1F50071D06915
:10137000C8B9D1F80C029843C1F80C02908880B229
:10138000968940EA064601F51070576940F83760C3
:10139000108880B2168940EA064601F51070576938
:1013A00000EBC7004660D069012819D1D1F80C02C2
:1013B0001843C1F80C02908880B2168840EA0646AD
:1013C00001F51070576940F83760908980B216892E
:1013D00040EA064601F51070576900EBC700466009
:1013E000906928B9D1F804029843C1F8040204E0D6
:1013F000D1F804021843C1F80402106928B9D1F8E1
:1014000014029843C1F8140204E0D1F814021843FE
:10141000C1F81402106A012804D1D1F81C02184343
:10142000C1F81C02D1F8000220F00100C1F800024E
:101430000020F0BDFFE7606A40F480206062012078
:10144000F7E7000000640040704770B5044694F868
:101450002050012D01D0022D7DD151B92068C068E6
:1014600000F0030080B9606A40F40010606201205F
:1014700070BD2068006900F0030028B9606A40F47C
:10148000001060620120F3E7206800F5D87000EBDF
:101490000110006800F004009060906840B9206876
:1014A00000F5D87000EB01100068400D106007E0F7
:1014B000206800F5D87000EB01100068C00850608B
:1014C000206800F5D87000EB0110006800F0020001
:1014D000D060206800F5D87000EB0110406800F083
:1014E0000F00082802D30820106108E0206800F5EA
:1014F000D87000EB0110406800F00F001061206808
:1015000000F5D87000EB0110406800F47F40000A3D
:101510009061206800F5D87000EB01104068000C65
:101520005061206800F5D87000EB011080681870D9
:10153000206800F5D87000EB0110806800F47F404F
:10154000000A5870206800F5D87000EB0110806820
:1015500000F47F0000E03CE0000C9870206800F58B
:10156000D87000EB01108068000ED870206800F57C
:10157000D87000EB0110C0681871206800F5D870B1
:1015800000EB0110C06800F47F40000A5871206829
:1015900000F5D87000EB0110C06800F47F00000C6B
:1015A0009871206800F5D87000EB0110C068000E3B
:1015B000D87131B92068C06840F020002668F0601A
:1015C00005E02068006940F02000266830610020B6
:1015D0004EE7606A40F480206062012048E70146DF
:1015E000002091F82020012A01D0022A11D10B6895
:1015F0009B6803F0806303B1401C0B689B6803F099
:10160000006303B1401C0B689B6803F0805303B177
:10161000401C70472DE9F05F0446002520684669AC
:101620002068D0F80490206887682068D0F80CA063
:101630002068D0F810B02068D0F8188006F00100BB
:10164000002855D007F00100C0B101202168886052
:1016500007F0020018B1204600F00DFB0EE007F085
:10166000040010B145F4006508E007F0080010B16F
:1016700045F4805502E0204600F0FCFA07F4807043
:10168000C8B14FF480702168886007F4007018B109
:10169000204600F0F2FA0EE007F4806010B145F445
:1016A000005508E007F4006010B145F4804502E001
:1016B000204600F0E1FA07F48030C8B14FF48030E2
:1016C0002168886007F4003018B1204600F0D7FA8E
:1016D0000EE007F4802010B145F4004508E007F45F
:1016E000002010B145F4803502E0204600F0C6FA33
:1016F00006F0080038B10AF0100020B145F400757A
:1017000010202168C86006F0040040B10AF008000B
:1017100028B108202168C860204600F01FFA06F0B2
:10172000020038B12068C06800F0030010B1204604
:1017300000F016FA06F0400038B10BF0100020B1AE
:1017400045F4806510202168086106F0200040B152
:101750000BF0080028B1082021680861204600F03D
:101760002BFA06F0100038B12068006900F0030081
:1017700010B1204600F022FA06F4003040B109F022
:10178000100028B1102021684860204600F042FA7D
:1017900006F4803040B109F0080028B10820216823
:1017A0004860204600F06CFA06F4004088B309F067
:1017B000040078B306F4807020B108F0010008B18D
:1017C00045F0010506F4007020B108F0020008B1F0
:1017D00045F0020506F4806020B108F0040008B16D
:1017E00045F0040506F40060A0B108F0700088B16F
:1017F00008F07000402817D006DC10280BD02028F5
:101800000CD0302819D10CE0502810D0602814D109
:1018100010E01DE019E045F008050FE045F0100567
:101820000CE045F0200509E045F0400506E045F0F4
:10183000800503E045F4807500E000BF00BF20682C
:10184000806920F070002168886104202168486068
:101850002DB1606A284360622046FFF7F5FDBDE8C0
:10186000F09F70B504460CB9012070BD94F82000BB
:1018700010B9204600F0B0F82068006840F0010080
:101880002168086000F060FD05460DE000F05CFD99
:10189000401B0A2808D9606A40F4003060620520C5
:1018A00084F820000120E0E72068406800F0010093
:1018B0000028EBD02068006820F002002168086052
:1018C00000F042FD05460DE000F03EFD401B0A28F9
:1018D00008D9606A40F400306062052084F8200076
:1018E0000120C2E72068406800F002000028EBD128
:1018F000207E012806D12068006840F08000216821
:10190000086005E02068006820F080002168086019
:10191000607E012806D12068006840F04000216800
:10192000086005E02068006820F040002168086039
:10193000A07E012806D12068006840F020002168C0
:10194000086005E02068006820F020002168086039
:10195000E07E012806D12068006820F01000216890
:10196000086005E02068006840F010002168086009
:10197000207F012806D12068006840F00800216817
:10198000086005E02068006820F008002168086011
:10199000607F012806D12068006840F004002168BB
:1019A000086005E02068006820F0040021680860F5
:1019B000D4E9020108432169084361690843616869
:1019C000491E08432168C86100206062012084F834
:1019D0002000002049E7000010B586B0044614211D
:1019E00001A8FEF7BFFD5749206888424AD15648F2
:1019F0000068401C544908600846006801280FD15F
:101A000000BF002000905148006840F000704F492E
:101A100008600846006800F00070009000BF00BF3A
:101A200000BF0020009049481038006840F00100D5
:101A30004649103908600846006800F0010000902F
:101A400000BF00BF4FF4C050019002200290002060
:101A50000390032004900920059001A93C4800F060
:101A600073FB00220521132000F06CFD132000F011
:101A700055FD00220521142000F064FD142000F023
:101A80004DFD5DE033492068884259D100BF0020F8
:101A900000902E48006840F080602C49086008469D
:101AA000006800F08060009000BF00BF264800681A
:101AB000401C254908600846006801280FD100BF76
:101AC000002000902148006840F000701F49086025
:101AD0000846006800F00070009000BF00BF00BF23
:101AE0000020009019481038006840F002001749A3
:101AF000103908600846006800F00200009000BF3E
:101B000000BF4FF44050019002200290002003904B
:101B1000032004900920059001A90F4800F014FB50
:101B2000002205213F2000F00DFD3F2000F0F6FCD3
:101B300000220521402000F005FD402000F0EEFCD1
:101B400006B010BD00640040200000204038024074
:101B5000000002400068004000040240704700009E
:101B600010B504460F4884420BD10F4BA3F11C0261
:101B700000212046FFF769FC0B481C380B49096817
:101B800088470B4884420BD1074BA3F11C0200216C
:101B90002046FFF75AFC04481C3806490968884764
:101BA00010BD000074010020A85700204001002053
:101BB0009C010020440100207047000010B504463D
:101BC0000F4884420BD10F4BA3F11C020121204688
:101BD000FFF73BFC0B481C380B49096888470B484A
:101BE00084420BD1074BA3F11C0201212046FFF7D1
:101BF0002CFC04481C3806490968884710BD0000C1
:101C000074010020CC570020400100209C010020DE
:101C100044010020704770B5044694F82000012864
:101C200022D1022084F820002068006820F0010002
:101C30002168086000F088FB05460DE000F084FB99
:101C4000401B0A2808D9606A40F400306062052011
:101C500084F82000012070BD2068406800F0010079
:101C60000028EBD16062F6E7606A40F40020606211
:101C70000120F0E770477047704770477047704722
:101C8000704770B50446A56D00F05EFB064694F8FB
:101C90003500022808D08020606500BF002084F84D
:101CA000340000BF012070BD2068006820F01600DD
:101CB000216808602068406920F080002168486140
:101CC000206C08B9A06C28B12068006820F00800DA
:101CD000216808602068006820F001002168086021
:101CE00010E000F031FB801B05280BD92020606537
:101CF000032084F8350000BF002084F8340000BFC2
:101D00000320D0E72068006800F001000028E8D137
:101D100094F85C103F208840A860012084F83500CA
:101D200000BF002084F8340000BF00BFBBE70146BD
:101D300091F83500022803D08020486501207047C3
:101D4000052081F835000868006820F001000A6865
:101D500010600020F3E70000F8B504460020009072
:101D60008C4800684FF41651B0FBF1F7A56D2E6852
:101D700094F85C1008208840304098B120680068D2
:101D800000F0040070B12068006820F004002168B1
:101D9000086094F85C1008208840A860606D40F0EE
:101DA0000100606594F85C1001208840304068B103
:101DB0002068406900F0800040B194F85C10012078
:101DC0008840A860606D40F00200606594F85C1087
:101DD00004208840304068B12068006800F00200AC
:101DE00040B194F85C1004208840A860606D40F019
:101DF0000400606594F85C1010208840304078B38F
:101E00002068006800F0080050B394F85C101020BF
:101E10008840A8602068006800F4802080B12068B5
:101E2000006800F4002028B9206CC8B12046216C5D
:101E3000884715E0A06C98B12046A16C88470FE058
:101E40002068006800F4807028B92068006820F0DD
:101E5000080021680860206C10B12046216C88477A
:101E600094F85C10202088403040002865D020681D
:101E7000006800F0100000285FD094F85C1020206B
:101E80008840A86094F83500052828D120680068AB
:101E900020F01600216808602068406920F080006A
:101EA00021684861206C08B9A06C28B120680068DE
:101EB00020F008002168086094F85C103F208840FA
:101EC000A860012084F8350000BF002084F83400A9
:101ED00000BF206D10B12046216D8847F8BD2068F5
:101EE000006800F4802080B12068006800F40020C1
:101EF00028B9606C10B12046616C88471DE0E06B2A
:101F0000D8B12046E16B884717E02068006800F4EC
:101F1000807068B92068006820F0100021680860AF
:101F2000012084F8350000BF002084F8340000BF91
:101F3000E06B10B12046E16B8847606D38B3606D8F
:101F400000F00100F0B1052084F835002068006839
:101F500020F001002168086000BF0098401C00903C
:101F6000B84200D905E02068006800F001000028B0
:101F7000F3D100BF012084F8350000BF002084F8B1
:101F8000340000BFE06C10B12046E16C884700BF10
:101F9000A4E70000300000202DE9F04104460025B0
:101FA00000F0D2F9074614B90120BDE8F081606A5B
:101FB00000B100BF022084F8350000BF002084F883
:101FC000340000BF2068006820F00100216808602C
:101FD0000AE000F0B9F9C01B052805D9202060658A
:101FE000032084F83500E0E72068006800F0010075
:101FF0000028EED12068056821480540D4E9010198
:102000000843E16808432169084361690843A169FD
:102010000843E1690843216A08430543606A0428CC
:1020200003D1D4E90B01084305432068056020680B
:10203000456925F00705606A0543606A04280DD1EB
:10204000A06A0543E06A48B12046FEF7E1FF28B1E7
:1020500040206065012084F83500A6E720684561CE
:102060002046FEF7BBFF064694F85C103F208840F0
:10207000B06000206065012084F83500002094E7FE
:102080003F8010F02DE9F04704460D4616461F46E6
:102090004FF00008D4F8589000BF94F8340001289D
:1020A00002D10220BDE8F087012084F8340000BF8F
:1020B00094F83500012825D1022084F8350000204D
:1020C00060653B46324629462046FEF7F6FF94F807
:1020D0005C103F208840C9F808002068006840F084
:1020E000160021680860206C28B12068006840F064
:1020F0000800216808602068006840F0010021683D
:10210000086006E000BF002084F8340000BF4FF0F4
:1021100002084046C6E7000010B50446802221466A
:10212000014805F099F910BD9C4F002010B50446F8
:1021300004480068204020B1024804602046FFF7B0
:10214000EBFF10BD143C0140F8B502460B460025DC
:10215000002400200021D6E0012606FA01F51E68C1
:1021600006EA0504AC4274D11E7906F00306012E7E
:1021700004D01E7906F00306022E13D190684F009A
:102180000326BE40B0434F00DE68BE40304390603F
:10219000506801268E40B0431E79C6F300168E406B
:1021A000304350601E7906F00306032E09D0D06834
:1021B0004F000326BE40B0434F009E68BE403043F0
:1021C000D0601E7906F00306022E13D1CF0802F16B
:1021D000200656F827004E07F70E0F26BE40B043E4
:1021E0004F07FF0E1E69BE403043CF0802F12006A4
:1021F00046F8270010684F000326BE40B0431E7902
:1022000006F003064F00BE40304310605E6806F4DF
:102210004036002E76D000BF002600963C4E366831
:1022200046F480463A4F3E603E46366806F48046A5
:10223000009600BF00BF374E8F0856F827008E0764
:10224000370F0F26BE40B043334EB24202D10026B4
:1022500024E057E0314EB24201D101261EE0304E5B
:10226000B24201D1022619E02E4EB24201D103261C
:1022700014E02D4EB24201D104260FE02B4EB242A3
:1022800001D105260AE02A4EB24201D1062605E018
:10229000284EB24201D1072600E008268F073F0FE3
:1022A000BE4030431B4E8F0846F82700224E306850
:1022B000A0435E6806F4801606B120431E4E3060CF
:1022C000361D3068A0435E6806F4001606B1204350
:1022D000194E361D3060184E361F3068A0435E68B8
:1022E00006F4003606B12043134E361F3060361F09
:1022F0003068A0435E6806F4803606B120430E4E77
:10230000083E3060491C1029FFF426AFF8BD0000DC
:1023100044380240083801400000024000040240F6
:1023200000080240000C024000100240001402406D
:1023300000180240001C0240083C01400AB18161C3
:1023400001E00B048361704701480068704700009A
:102350002400002070B504460CB9012070BD4CF675
:10236000CC402168086045F2555021680860D4E9E6
:10237000001048602168A0688860FFF7E5FF054607
:102380000BE0FFF7E1FF401B312806D92068C06849
:1023900000F0030008B10320E0E72068C06800F007
:1023A00003000028EDD14AF6AA2021680860002029
:1023B000D4E701464AF6AA200A6810600020704758
:1023C00003480068034909780844014908607047D8
:1023D000240000202C00002010B50D48006840F4B7
:1023E00000700B4908600846006840F4806008608F
:1023F0000846006840F480700860032000F0E0F8B0
:102400000F2000F007F800F05FF8002010BD00007A
:10241000003C02402DE9F04188B004460027B84650
:1024200000BF002001902348006840F002002149CD
:1024300008600846006800F00200019000BF00BF7D
:1024400002A903A800F092F9069F1FB900F0B6F99F
:10245000054602E000F0B2F945001748B5FBF0F080
:10246000A0F1010815481649086040F2E731144808
:10247000C160C0F80480002101618160816100F0C9
:10248000BFFC064696B90E4800F02AFD06466EB916
:102490001D2000F043F8102C07D2002221461D20F9
:1024A00000F050F80748046000E00126304608B00C
:1024B000BDE8F0814038024040420F000004004077
:1024C000800600202800002008B500BF00200090F2
:1024D0001148006840F480400F49086008460068D1
:1024E00000F48040009000BF00BF00BF00200090BB
:1024F000081F006840F08050091F08600846006807
:1025000000F08050009000BF00BF00220F21901EFD
:1025100000F018F808BD00004438024001460846A3
:1025200000280DDB00BF00BF00F01F0301229A400E
:1025300043099B0003F1E023C3F8002100BF00BF63
:1025400000BF70472DE9F05F80460D461646002714
:1025500005F0C8F9074639462A46334601F0070018
:10256000C0F1070ABAF1040F02D94FF0040A01E0E2
:10257000C0F1070AD14600F1040ABAF1070F02D2EE
:102580004FF0000A01E0A0F1030AD4464FF0010A1F
:102590000AFA09FAAAF1010A0AEA020A0AFA0CFA84
:1025A0004FF0010B0BFA0CFBABF1010B0BEA030B29
:1025B0004AEA0B042146404605F09CF9BDE8F09F2D
:1025C00000BF00F00702064B19684FF6FF031940E1
:1025D000044B0B4343EA0221014B196000BF7047D3
:1025E0000CED00E00000FA0570B504460D460CB98C
:1025F000012070BD5848006800F00700A84209D2C9
:1026000055490D700846006800F00700A84201D047
:102610000120EEE7207800F0020002281DD120788A
:1026200000F00400042805D14C48006840F4E05054
:102630004A490860207800F00800082805D147487A
:10264000006840F46040454908604448006820F054
:10265000F000A168084341490860207800F00100BB
:10266000A8B36068012807D13C4808380068C0F367
:102670004040B8B90120BCE76068022802D0606819
:10268000032807D1354808380068C0F3406048B9CE
:102690000120AEE7314808380068C0F3400008B9AF
:1026A0000120A6E72D48006820F003006168084378
:1026B0002A490860FFF748FE064609E0FFF744FE96
:1026C000801B41F28831884202D9032091E707E05C
:1026D0002248006800F00C006168B0EB810FEDD17A
:1026E0001D48006800F00700A84209D91A490D707A
:1026F0000846006800F00700A84201D0012078E7F2
:10270000207800F00400042807D11448006820F461
:10271000E050E168084311490860207800F00800A3
:10272000082808D10D48006820F46040216940EA7B
:10273000C1000A49086000F061F808490968C1F35E
:102740000311074A515CC840064908600648006802
:10275000FFF760FE00204CE7003C024008380240D2
:10276000F0B5000830000020280000200F22026091
:102770000D4A126802F0030242600B4A126802F02E
:10278000F0028260084A126802F4E052C260064A0F
:10279000126802F46042D2080261044A126802F030
:1027A00007020A607047000008380240003C0240FF
:1027B00001480068704700003000002000B5FFF7B6
:1027C000F7FF04490968C1F38221034A515CC840FC
:1027D00000BD00000838024000B6000800B5FFF751
:1027E000E7FF04490968C1F34231034A515CC8401C
:1027F00000BD00000838024000B600082DE9F0478F
:10280000002400250026A1462548006800F00C00A1
:1028100020B1042805D008283AD105E0DFF88490DB
:1028200039E0DFF8849036E01D48001F006800F0B2
:102830003F041B48001F006800F4800078B11A486C
:102840001749091F0968C1F38811A0FB01700146EF
:10285000224600233846FDF78FFD05460EE011485D
:102860000F49091F0968C1F38811A0FB01700146D7
:10287000224600233846FDF77FFD05460848001F25
:102880000068C0F30140401C4600B5FBF6F902E0C9
:10289000DFF8109000BF00BF4846BDE8F087000099
:1028A000083802400024F40000127A00F8B504460B
:1028B0000CB90120F8BD207800F00100002874D088
:1028C000F948006800F00C0004280DD0F6480068B4
:1028D00000F00C00082813D1F348001F006800F432
:1028E0008000B0F5800F0BD1EF4808380068C0F3C6
:1028F0004040002859D06068002856D10120D9E70F
:1029000000BF6068B0F5803F08D1E748083800682C
:1029100040F48030E449083908601EE06068B0F592
:10292000A02F0DD1E0480838006840F48020DE492F
:10293000083908600846006840F4803008600CE000
:10294000D9480838006820F48030D7490839086031
:102950000846006820F48020086000BF606890B1DD
:10296000FFF7F2FC054606E0FFF7EEFC401B64288B
:1029700001D903209EE7CC4808380068C0F34040E6
:102980000028F1D011E0FFF7DFFC054606E0FFF775
:10299000DBFC401B642801D903208BE7C2480838C0
:1029A0000068C0F340400028F1D1207800F0020018
:1029B00002285FD1BC48006800F00C0058B1BA484A
:1029C000006800F00C0008281CD1B748001F006800
:1029D00000F48000B0B9B44808380068C0F3400083
:1029E00020B1E068012801D0012063E7AE48083833
:1029F000006820F0F800216940EAC100AA490839BE
:102A0000086037E0E06800B30120A8490860FFF7DC
:102A10009BFC054606E0FFF797FC401B022801D906
:102A2000032047E7A04808380068C0F340000028AA
:102A3000F1D09D480838006820F0F800216940EA8C
:102A4000C10099490839086014E0002097490860DE
:102A5000FFF77AFC054606E0FFF776FC401B0228EC
:102A600001D9032026E7904808380068C0F34000E9
:102A70000028F1D1207800F0080008282CD16069E6
:102A8000A8B101208A490860FFF75EFC054606E010
:102A9000FFF75AFC401B022801D903200AE78248AD
:102AA0006C300068C0F340000028F1D014E0002032
:102AB0007F490860FFF748FC054606E0FFF744FC45
:102AC000401B022801D90320F4E677486C300068E7
:102AD000C0F340000028F1D1207800F00400042861
:102AE00070D1002770483830006800F0805090B9ED
:102AF00000BF002000906C483830006840F08050E3
:102B00006949383108600846006800F0805000903C
:102B100000BF00BF01276748006800F48070B0B9AB
:102B20006448006840F4807062490860FFF70CFC5C
:102B3000054606E0FFF708FC401B022801D90320E8
:102B4000B8E65C48006800F480700028F2D000BF4E
:102B5000A068012808D154486830006840F001009E
:102B60005149683108601DE0A06805280DD14E4824
:102B70006830006840F004004B496831086008463E
:102B8000006840F0010008600CE0474868300068C9
:102B900020F001004449683108600846006820F0D0
:102BA0000400086000BFA068A8B1FFF7CDFB054690
:102BB00009E0FFF7C9FB401B41F28831884202D986
:102BC000032077E626E0384868300068C0F340000C
:102BD0000028EED013E0FFF7B7FB054608E0FFF74B
:102BE000B3FB401B41F28831884201D9032061E6E2
:102BF0002D4868300068C0F340000028EFD1012F55
:102C000007D129483830006820F0805026493831F3
:102C1000086000BFA069002845D02348006800F084
:102C20000C0008285DD0A069022845D100201F496A
:102C30000866FFF789FB054606E0FFF785FB401BAA
:102C4000022801D9032035E6174808380068C0F388
:102C500040600028F1D1D4E907010843616A40EAE5
:102C600081110122A06AC2EB500041EA00412C20F0
:102C7000005D41EA00600C49091F086001200B4912
:102C80000866FFF761FB054606E0FFF75DFB401BAA
:102C9000022801D903200DE6034808380068C0F374
:102CA00040600028F1D049E0083802400000474267
:102CB000800E474200700040002021490866FFF75F
:102CC00043FB054606E0FFF73FFB401B022801D906
:102CD0000320EFE51B480068C0F340600028F2D1F4
:102CE0002CE0A069012800D1E4E51648001D066823
:102CF000A069012820D006F48001E06981421BD13F
:102D000006F03F01206A814216D147F6C07030407C
:102D1000616AB0EB811F0FD106F440310122A06A35
:102D2000C2EB5000B1EB004F06D106F070612C20D1
:102D3000005DB1EB006F01D00120BBE50020B9E5DB
:102D400000004742003802407047704730B50246E5
:102D50000B4600BF92F83C00012801D1022030BD93
:102D6000012082F83C0000BF022082F83D0010687C
:102D700044681068816824F070041868044310687F
:102D80004460184D1068A8421BD01068B0F1804F05
:102D900017D0154D1068A84213D0144D1068A842E2
:102DA0000FD0134D1068A8420BD0124D1068A842E6
:102DB00007D0114D1068A84203D0104D1068A842EA
:102DC00005D121F08001586801431068816001201D
:102DD00082F83D0000BF002082F83C0000BF00BF29
:102DE000BDE7000000000140000400400008004072
:102DF000000C004000040140004001400018004069
:102E000010B504460CB9012010BD94F83D0028B956
:102E1000002084F83C00204600F026F8022084F8C8
:102E20003D00211D206801F08FFC012084F8460040
:102E300000BF84F83E0001213F200155402001558C
:102E40004120015500BF00BF012084F8420043200B
:102E50000155442001554520015500BF012084F84B
:102E60003D000020D0E7000038B50446194920682D
:102E7000884218D100BF002000901748006840F039
:102E80000400154908600846006800F0040000903E
:102E900000BF00BF002205211E20FFF753FB1E20AC
:102EA000FFF73CFB15E00D492068884211D100BFB7
:102EB000002000900848001D006840F400300649DA
:102EC000091D08600846006800F40030009000BF4B
:102ED00000BF38BD000800404038024000440140B7
:102EE000014691F83D00012801D0012070470220E1
:102EF00081F83D000868C06840F001000B68D860A8
:102F00001A4B086898421BD00868B0F1804F17D060
:102F1000174B0868984213D0164B086898420FD098
:102F2000154B086898420BD0144B0868984207D09C
:102F3000134B0868984203D0124B086898420CD192
:102F40000868806800F00702062A0CD0086800684C
:102F500040F001000B68186005E00868006840F068
:102F600001000B6818600020C0E70000000001406D
:102F70000004004000080040000C00400004014034
:102F800000400140001800402DE9F04104460D4684
:102F9000002700BF94F83C00012802D10220BDE8C0
:102FA000F081012084F83C0000BF022084F83D003D
:102FB0002068866826F0770626F47F4620688660BB
:102FC0002868502833D00CDC202850D004DC00289E
:102FD0004BD0102851D149E0302849D040284CD15D
:102FE00039E060282DD0702807D0B0F5805F03D07D
:102FF000B0F5005F41D10DE041E0D5E902136A6808
:10300000206801F026FC2068866846F07706206874
:10301000866034E0D5E902136A68206801F019FC83
:103020002068806840F480402168886027E0EA6872
:103030006968206801F0FEFC5021206801F014FC52
:103040001DE0EA686968206801F007FD60212068DA
:1030500001F00AFC13E0EA686968206801F0EAFC04
:103060004021206801F000FC09E000BF00BF00BF64
:103070002968206801F0F8FB01E0012700BF00BFCC
:10308000012084F83D0000BF002084F83C0000BF10
:10309000384684E7704770B504462068C5682068E4
:1030A000066906F00200022819D105F00200022884
:1030B00015D1401F216808610120207720688069B0
:1030C00000F0030018B12046FFF7E4FF05E02046BA
:1030D00000F0C8F8204600F07CF90020207706F0C8
:1030E0000400042819D105F00400042815D1C043B8
:1030F00021680861022020772068806900F4407010
:1031000018B12046FFF7C6FF05E0204600F0AAF8F8
:10311000204600F05EF90020207706F0080008281D
:1031200019D105F00800082815D1C04321680861AD
:10313000042020772068C06900F0030018B1204601
:10314000FFF7A8FF05E0204600F08CF8204600F0CD
:1031500040F90020207706F01000102819D105F062
:103160001000102815D1C04321680861082020777D
:103170002068C06900F4407018B12046FFF78AFF4C
:1031800005E0204600F06EF8204600F022F900200D
:10319000207706F0010048B105F0010030B16FF072
:1031A000010021680861204600F09AF906F08000CD
:1031B000802809D105F08000802805D1C04321680E
:1031C00008612046FFF7C0FD06F04000402809D105
:1031D00005F04000402805D1C04321680861204621
:1031E00000F092F906F02000202809D105F0200017
:1031F000202805D1C043216808612046FFF7A5FDBE
:1032000070BD000010B586B00446142101A8FDF77A
:10321000A9F91149206888421CD100BF0020009004
:103220000E48006840F020000C490860084600681D
:1032300000F02000009000BF00BF4020019002205D
:1032400002900020039004900320059001A90448F7
:10325000FEF77AFF06B010BD00440140303802404E
:103260000014024070472DE9F04104460D46164611
:10327000002700BF94F83C00012802D10220BDE8DD
:10328000F081012084F83C0000BF36B1042E1BD031
:10329000082E31D00C2E5ED145E02946206801F081
:1032A000EDFA2068806940F0080021688861206894
:1032B000806920F00400216888612068806929699C
:1032C00008432168886148E02946206801F00EFB28
:1032D0002068806940F40060216888612068806906
:1032E00020F480602168886120688069296940EA4B
:1032F00001202168886130E02946206801F034FB14
:103300002068C06940F008002168C8612068C06971
:1033100020F004002168C8612068C0692969084359
:103320002168C86119E02946206801F059FB20682E
:10333000C06940F400602168C8612068C06920F459
:1033400080602168C8612068C069296940EA01205D
:103350002168C86101E0012700BF00BF00BF002055
:1033600084F83C0000BF384689E710B504460CB924
:10337000012010BD94F83D0028B9002084F83C00DD
:10338000204600F025F8022084F83D00211D206829
:1033900001F0DAF9012084F8460000BF84F83E000D
:1033A00001213F200155402001554120015500BF1A
:1033B00000BF012084F842004320015544200155FC
:1033C0004520015500BF012084F83D000020D0E7D2
:1033D0007047704770B504460D4615B994F83E0025
:1033E0000BE0042D02D13F20005D06E0082D02D144
:1033F0004020005D01E04120005D012801D0012056
:1034000070BD1DB9022084F83E000EE0042D03D1EA
:1034100002213F20015508E0082D03D10221402060
:10342000015502E002214120015501222946206870
:1034300001F0FEF923492068884203D02249206820
:10344000884201D1012000E0002028B12068406CB2
:1034500040F40040216848641A49206888421BD023
:103460002068B0F1804F17D018492068884213D0E7
:103470001749206888420FD01649206888420BD02F
:1034800011492068884207D013492068884203D038
:103490001249206888420CD12068806800F0070635
:1034A000062E0CD02068006840F0010021680860FA
:1034B00005E02068006840F00100216808600020F5
:1034C0009EE70000000001400004014000040040AD
:1034D00000080040000C004000400140001800407F
:1034E00010B5044606492068884201D1FEF768FFFE
:1034F00004492068884201D101F03EFF10BD000060
:1035000000040040000800407047704770B5044652
:10351000002520684069C0F3C01594F841002128B7
:1035200017D1B5B100BF00BF2168143151E8001FA9
:1035300021F080002168143141E80002002AF3D113
:1035400000BFA06B10B1A06BFEF79BFB204601F003
:10355000C0FB20684069C0F3801594F8420022281F
:1035600017D1B5B100BF00BF2168143151E8001F69
:1035700021F040002168143141E80002002AF3D113
:1035800000BFE06B10B1E06BFEF77BFB204601F063
:103590005AFB002070BD70472DE9F84F04462068A3
:1035A00005682068C668206847694FF00009CA4668
:1035B00005F00F09B9F1000F0AD105F0200038B16C
:1035C00006F0200020B1204601F096FBBDE8F88F00
:1035D000B9F1000F7CD007F0010018B906F4907023
:1035E000002875D005F0010030B106F4807018B1E4
:1035F000606C40F00100606405F0040030B107F039
:10360000010018B1606C40F00200606405F0020037
:1036100030B107F0010018B1606C40F00400606444
:1036200005F0080048B106F0200010B907F00100CD
:1036300018B1606C40F008006064606C002846D0EF
:1036400005F0200028B106F0200010B1204601F05E
:1036500053FB20684069C0F3801A606C00F00800DA
:1036600010B9BAF1000F2DD0204601F0ECFA206815
:10367000406900F04000402820D100BF00BF216811
:10368000143151E8001F21F040002168143141E855
:103690000002002AF3D100BFE06B50B17748E16B24
:1036A0000865E06BFEF743FB88B1E06B016D88476E
:1036B0000DE02046FFF76FFF09E009E02046FFF725
:1036C0006AFF04E02046FFF766FF002060647DE7A4
:1036D000206B012878D105F01000002874D006F086
:1036E00010000028FAD000BF002000902068006879
:1036F000009020684068009000BF00BF20684069CB
:1037000000F04000402860D1E06B006840681FFA7C
:1037100080F8B8F1000F56D0A08D404553DDA4F8D5
:103720002E80E06BC069B0F5807F43D000BF00BF42
:1037300021680C3151E8001F21F4807021680C31A0
:1037400041E80002002AF3D100BF00BF00BF21689A
:10375000143151E8001F21F001002168143141E8C3
:103760000002002AF3D100BF00BF00BF216814315E
:1037700051E8001F21F040002168143141E80002A7
:10378000002AF3D100BF202084F8420000202063EB
:1037900000BF00BF21680C3151E8001F21F010006C
:1037A00021680C3141E80002002AF3D100BFE06B30
:1037B000FEF767FA02206063A08DE28D801A81B265
:1037C0002046FFF7A2FE01E742E0A08DE18D401AFE
:1037D0001FFA80F8E08DD0B3B8F1000F37D000BFEA
:1037E00000BF21680C3151E8001F21F4907021685E
:1037F0000C3141E80002002AF3D100BF00BF00BF36
:103800002168143151E8001F21F0010021681431B2
:1038100041E80002002AF3D100BF202084F84200D2
:103820000020206300BF00BF21680C3151E8001F59
:1038300021F0100021680C3141E80002002AF3D188
:1038400000BF0220606341462046FFF75EFEBDE6F2
:1038500005F0800030B106F0800018B1204601F07C
:103860005BFCB3E605F0400030B106F0400018B153
:10387000204601F01EFAA9E600BFA7E6A54A000807
:1038800010B504460CB9012010BDA06900B100E0DC
:1038900000BF94F8410028B9002084F84000204679
:1038A00000F02AF8242084F841002068C06820F441
:1038B00000502168C860204601F0B4FA2068006911
:1038C00020F49040216808612068406920F02A00B7
:1038D000216848612068C06840F400502168C860D1
:1038E00000206064202084F8410084F84200002019
:1038F000606300BFC8E7000010B586B0044614211D
:1039000001A8FCF72FFEF7492068884276D100BF56
:1039100000200090F448006840F01000F249086070
:103920000846006800F01000009000BF00BF00BF14
:1039300000200090EC481438006840F00100EA498B
:10394000143908600846006800F00100009000BFCC
:1039500000BF4FF4C060019002200290002003904D
:10396000032004900720059001A9E048FEF7ECFB36
:10397000DF48E04908604FF0006048604021DD48C2
:1039800081600021C1604FF48061016100214161CB
:103990008161C16101624162FEF7FEFA08B1FDF783
:1039A000F3FB00BFD348A063846300BFD0487838DE
:1039B000D14908604FF0006048600021CE48816026
:1039C000C1604FF480610161002141618161C16189
:1039D00001624162FEF7E0FA08B1FDF7D5FB00BFD6
:1039E000C548E063846300BF002205212520FEF75F
:1039F000A9FD2520FEF792FD72E1FFE7BF4920688F
:103A0000884277D100BF00200090B748001F0068AF
:103A100040F40030B449091F08600846006800F40B
:103A20000030009000BF00BF00BF00200090AE48F3
:103A30001438006840F00100AB49143908600846AA
:103A4000006800F00100009000BF00BF0C20019052
:103A5000022002900020039003200490072005908C
:103A600001A9A248FEF770FBA548A64908604FF0DF
:103A7000006048600021A3488160C1604FF480610C
:103A80000161002141618161C16101624162FEF712
:103A900083FA08B1FDF778FB00BF9A48E0638463BE
:103AA00000BF97481830984908604FF000604860A0
:103AB0004021954881600021C1604FF4806101611F
:103AC000002141618161C16101624162FEF764FAD6
:103AD00008B1FDF759FB00BF8B48A063846300BFAA
:103AE000002205212620FEF72DFD2620FEF716FDDB
:103AF000F6E0FFE785492068884279D100BF0020C1
:103B000000907948001F006840F480207649091F22
:103B100008600846006800F48020009000BF00BFE5
:103B200000BF0020009070481438006840F0020088
:103B30006D49143908600846006800F002000090E2
:103B400000BF00BF4FF440600190022002900020AF
:103B50000390032004900720059001A96C48FEF70C
:103B6000F3FA674860386B4908604FF000604860BE
:103B7000002168488160C1604FF4806101610021CB
:103B800041618161C16101624162FEF705FA08B1DC
:103B9000FDF7FAFA00BF5F48E063846300BF58484E
:103BA00030385D4908604FF00060486040215A4855
:103BB00081600021C1604FF4806101610021416199
:103BC0008161C16101624162FEF7E6F908B1FDF76A
:103BD000DBFA00BF5048A063846300BF00220521C8
:103BE0002720FEF7AFFC2720FEF798FC78E0FFE7E0
:103BF0004A492068884273D100BF002000903A48AB
:103C0000006840F02000384908600846006800F06D
:103C10002000009000BF00BF00BF0020009032488D
:103C20001438006840F004002F4914390860084631
:103C3000006800F00400009000BF00BFC0200190A9
:103C40000220029000200390032004900820059099
:103C500001A93348FEF778FA2548903831490860C1
:103C60008005486000212F488160C1604FF4806169
:103C70000161002141618161C16101624162FEF720
:103C80008BF908B1FDF780FA00BF2648E063846332
:103C900000BF17481838244908604FF0206048607A
:103CA0004021214881600021C1604FF480610161A1
:103CB000002141618161C16101624162FEF76CF9DD
:103CC00008B1FDF761FA00BF1748A063846300BF25
:103CD000002205214720FEF735FC4720FEF71EFC99
:103CE00006B010BD00100140443802400000024000
:103CF000B864024080030020E0030020004400403C
:103D00008860024040040020A004002000480040D9
:103D1000000402400005002060050020001401405E
:103D200000080240C00500202006002070B50446AF
:103D30000D46164694F8420020280BD105B10EB965
:103D4000012070BD0020206332462946204601F044
:103D50007FF9F6E70220F4E770477047F7B50446AD
:103D6000154694F84100202836D1019800B10DB9CC
:103D70000120FEBD01982062A584E58400206064D6
:103D8000212084F841001548A16BC8631448A16B39
:103D900008641448A16BC8640020A16B086501AEDB
:103DA00023681A1D31682B46A06BFEF76BF96FF084
:103DB00040002168086000BF00BF2168143151E84D
:103DC000001F41F080002168143141E80002002A00
:103DD000F3D100BF0020CCE70220CAE7E14B000886
:103DE000394C0008B94A00087047704700BFFEE729
:103DF0000BE006480078012802D10548FEF7D9FA01
:103E000000F0AAFB012004F0CCFDF2E757010020EE
:103E1000C401002010B50E480E4908600320486018
:103E200000210C488160C1604FF4002101614FF412
:103E3000401141610021017641768176C17601779A
:103E40004177FDF70EFD08B1FDF79EF910BD0000AA
:103E5000006400407401002010B50E480E4908604F
:103E60000320486000210C488160C1604FF40021AC
:103E700001614FF440114161002101764176817664
:103E8000C17601774177FDF7ECFC08B1FDF77CF9CD
:103E900010BD0000006800409C01002008B500BF74
:103EA000002000902E48006840F480002C490860F3
:103EB0000846006800F48000009000BF00BF00BF0B
:103EC000002000900846006840F400100860084692
:103ED000006800F40010009000BF00BF0022052120
:103EE0000C20FEF72FFB0C20FEF718FB002205210B
:103EF0000E20FEF727FB0E20FEF710FB0022052107
:103F00001020FEF71FFB1020FEF708FB0022052102
:103F10001120FEF717FB1120FEF700FB0022052100
:103F20003920FEF70FFB3920FEF7F8FA00220521B1
:103F30003A20FEF707FB3A20FEF7F0FA00220521AF
:103F40004520FEF7FFFA4520FEF7E8FA002205219A
:103F50004620FEF7F7FA4620FEF7E0FA08BD00001B
:103F60003038024010B51C4A00211C4804F06EFD98
:103F70001B4908601B4A00211B4804F067FD1B49D0
:103F800008601B4A00211B4804F060FD1A490860C4
:103F90001A4A00211A4804F059FD1A4908601A4AC1
:103FA00000211A4804F052FD19490860194A0021FD
:103FB000194804F04BFD19490860194A00211948B5
:103FC00004F044FD18490860184A0021184804F01C
:103FD0003DFD1849086010BDC8B40008310D000847
:103FE00000000020ECB40008FD0E000804000020D2
:103FF00010B50008C90D00080800002034B50008FD
:10400000F54D00080C00002058B500088D5300083D
:10401000100000207CB500084109000814000020B1
:10402000A0B500082D0C000818000020C4B5000839
:10403000F13D00081C00002000B587B0142102A843
:10404000FCF790FA00BF002001903F48006840F064
:1040500010003D4908600846006800F0100001901B
:1040600000BF00BF00BF002001900846006840F07C
:10407000040008600846006800F00400019000BFDA
:1040800000BF00BF002001900846006840F02000FB
:1040900008600846006800F02000019000BF00BFE3
:1040A00000BF002001900846006840F080000860D2
:1040B0000846006800F08000019000BF00BF00BF0C
:1040C000002001900846006840F0010008600846A2
:1040D000006800F00100019000BF00BF00BF002099
:1040E00001900846006840F0020008600846006839
:1040F00000F00200019000BF00BF002260211348C1
:10410000FEF71CF960200290012003900220049029
:104110000120059002A90D48FEF716F880200290B4
:104120004FF4881003900020049002A90848FEF77D
:104130000BF8002205211720FEF704FA1720FEF7DE
:10414000EDF907B000BD0000303802400010024019
:104150000014024010B50748074908600420486071
:104160004FF4FA7104488160FEF7F4F808B1FDF7E6
:104170000BF810BD00300040C401002000B587B02E
:104180001C216846FCF7EEF91548164908605320D3
:10419000486000211348816040F63301C16000216E
:1041A00001618161FEF72CFE08B1FCF7EDFF0D48BF
:1041B000FFF7DBF808B1FCF7E7FF60200090002074
:1041C000019002900490002269460648FFF74BF8E0
:1041D00008B1FCF7D9FF0348FFF714F807B000BD9A
:1041E000004401401802002000B587B00020039071
:1041F00004900590069001900290144814490860BC
:10420000532048600021124881604FF6FF71C16061
:10421000002101618161FEF7F3FD08B1FCF7B4FFF5
:104220004FF48050039003A90948FEF7ADFE08B192
:10423000FCF7AAFF00200190029001A90448FEF7B4
:1042400085FD08B1FCF7A0FF07B000BD00080040E5
:10425000D001002010B50B480B4908604FF41650F0
:104260004860002108488160C16001610C21416102
:1042700000218161C161FFF703FB08B1FCF784FFF6
:1042800010BD0000001001406002002010B50B4876
:104290000B4908604FF4E130486000210848816014
:1042A000C16001610C21416100218161C161FFF7A1
:1042B000E7FA08B1FCF768FF10BD000000440040B9
:1042C000A802002010B50B480B4908604FF4E130FC
:1042D0004860002108488160C16001610C21416192
:1042E00000218161C161FFF7CBFA08B1FCF74CFFF7
:1042F00010BD000000480040F002002010B50B483F
:104300000B4908604FF4E1304860002108488160A3
:10431000C16001610C21416100218161C161FFF730
:10432000AFFA08B1FCF730FF10BD000000140140E7
:104330003803002000BFFEE700BFFEE72DE9F04193
:1043400005460E4614461F46E56066602046FEF7A9
:1043500057FD39462046FFF73DF8BDE8F0810000E3
:1043600010B500220121F7EE000A9FED0A0A0A4863
:1043700002F0A0FEDFED092AB0EE082ADFED081AF0
:10438000B2EE041ADFED070AB1EE040A024802F0A9
:104390009CFE10BDCDCC4C3F30590020CDCCCC3D47
:1043A0000000C843000000000EB52D4800682D49EC
:1043B0000968401A2C49086002202C49087600221E
:1043C00069462B48006805F041FF012820D12448A8
:1043D0000068244908602748029902F0A7FD254893
:1043E00090ED000A214880ED000A224890ED010A74
:1043F0001E4880ED010A1F48007D1C4908761D48B3
:10440000407D1D4908701C2218491C48FCF770F8B3
:1044100015480068642806D91C211448FCF7A2F846
:1044200000201549087014480078012806D100239F
:104430001A4612491248006805F0B6FD1148006896
:1044400080474FF47A71B0FBF1F005490860002312
:104450001A460D490D48006805F0A6FD0EBD000086
:10446000640100206801002060010020E459002060
:10447000280100203059002070010020005A00203F
:1044800030010020D00000206C0100203401002009
:104490003EB505460C460948006868B10295ADF87E
:1044A000044007480090029830B100231A4669463C
:1044B0000248006805F04CFE00203EBD28010020A7
:1044C0006002002070B5134600240568EC6A651C84
:1044D0005D436426B5FBF6F211B905686A630BE02B
:1044E000042902D10568AA6306E0082902D10568FB
:1044F000EA6301E005682A6470BD70B504460D46A4
:104500002068C06AB0FBF5F0401EE0602046FEF770
:1045100077FC2046FEF729FF70BD0000C16809B98D
:104520000549C16005490A780978491C034B19708F
:10453000034941F8220070474D450008560100200C
:104540001458002081684160704700000020014934
:10455000087070475701002010B500241FE0124872
:1045600050F824000078012818D10F4850F8240092
:10457000806898B10C4850F824004068401E0A49F1
:1045800051F824104860084850F82400406800287A
:1045900004DC054951F82410C8688047641C0348AE
:1045A00000788442DBDB10BD145800205601002047
:1045B00010B54FF0E020006905F0D2FF012801D0CE
:1045C00005F0EEFB10BD000000B593B0302107A848
:1045D000FBF7C8FF142102A8FBF7C4FF00BF0020AF
:1045E00001902548006840F0805023490860084643
:1045F000006800F08050019000BF00BF00BF0020A5
:1046000001901E48006840F480401C49086008463C
:10461000006800F48040019000BF00BF09200790AF
:104620004FF48030089001200C9002200D9041053D
:104630000E9104210F91A8211091022111910421C2
:10464000129107A8FEF732F908B1FCF79DFD0F2083
:10465000029002200390002004904FF4A050059097
:104660004FF480500690052102A8FDF7BDFF08B168
:10467000FCF78AFD13B000BD4038024000700040D6
:104680000348006840F4700001490860704700006A
:1046900088ED00E010B5FCF727FD0221194800F075
:1046A000F1F90023184A49F63F4141F26700FFF74C
:1046B00045FE16491648FCF7E9FB16491648FCF773
:1046C000E5FB00231A4619461148FCF7A5FB002319
:1046D0001A4672211048FCF79FFB00231A460C2152
:1046E0000B48FCF799FB00231A467E210A48FCF789
:1046F00093FB0A4B17220A490A4800F06DFDFCF7AC
:1047000077FA10BDD001002018020020A50C000887
:1047100074010020910D00089C01002091440008C4
:10472000F0510020F002002010B50248FEF7B3FC63
:1047300010BD00008006002010B50248FEF7ABFC5B
:1047400010BD0000D001002010B502682D4B98422A
:104750000ED0B0F1804F0BD02B4B984208D02B4B92
:10476000984205D02A4B984202D02A4B984203D156
:1047700022F070024B681A43224B984220D0B0F1CD
:10478000804F1DD0204B98421AD0204B984217D012
:104790001F4B984214D01F4B984211D01E4B984289
:1047A0000ED01E4B98420BD01D4B984208D01D4B8B
:1047B000984205D01C4B984202D01C4B984203D122
:1047C00022F44072CB681A4322F080034C6943EA1A
:1047D000040202608B68C3620B688362094B9842D3
:1047E00002D00C4B984201D10B6903630123436152
:1047F000036903F001031BB1036923F001030361A3
:1048000010BD00000000014000040040000800400E
:10481000000C004000040140004001400044014001
:104820000048014000180040001C004000200040EB
:1048300030B501F01F05012404FA05F3046A9C4316
:104840000462046A01F01F0502FA05F52C430462B4
:1048500030BD30B50C46816821F47F4142EA032522
:1048600025432943816030BD0A46816821F07001EB
:1048700042F00703194381607047000030B5026AB7
:10488000056A25F0010505624368846924F0700417
:1048900024F003040D682C4322F002028D682A43A1
:1048A000104DA84200D103E00F4DA84206D100BF31
:1048B00022F00802CD682A4322F00402094DA842E2
:1048C00002D0094DA84207D123F4807323F400736A
:1048D0004D692B438D692B43436084614D6845636B
:1048E000026230BD000001400004014030B5026AA0
:1048F000056A25F0100505624368846924F4E044E4
:1049000024F440740D6844EA052422F020028D68E6
:1049100042EA0512124DA84200D103E0114DA8420F
:1049200007D100BF22F08002CD6842EA051222F0D2
:1049300040020B4DA84202D00A4DA84209D123F4EF
:10494000806323F400634D6943EA85038D6943EA7C
:104950008503436084614D688563026230BD000059
:10496000000001400004014030B5026A056A25F4E8
:10497000807505624368C46924F0700424F0030460
:104980000D682C4322F400728D6842EA0522124D14
:10499000A84200D103E0114DA84207D100BF22F484
:1049A0000062CD6842EA052222F480620A4DA842E4
:1049B00002D00A4DA84209D123F4805323F40053B6
:1049C0004D6943EA05138D6943EA05134360C461E9
:1049D0004D68C563026230BD000001400004014023
:1049E00030B5036A056A25F4805505624468C269DA
:1049F00022F4E04222F440720D6842EA052223F4D8
:104A000000538D6843EA0533084DA84202D0084D93
:104A1000A84204D124F480444D6944EA85144460DA
:104A2000C2614D680564036230BD000000000140B2
:104A30000004014030B50B461446026A056A25F0B1
:104A400001050562816921F0F00141EA041122F0BB
:104A50000A021A438161026230BD30B50B4614462A
:104A6000026A056A25F010050562816921F470412A
:104A700041EA043122F0A00242EA0312816102629B
:104A800030BD000070B504460D4605480460057150
:104A900001460868FEF724FA08B1FCF778FB70BD00
:104AA0004C01002070B50546AC6B0020E085E08429
:104AB0002046FEF770FD70BD70B506460025B46B4C
:104AC00020684069C0F3C01594F84100212805D141
:104AD00025B10020E084204600F0FBF82068406902
:104AE000C0F3801594F84200222805D125B100209A
:104AF000E085204600F0A7F8606C40F0100060648C
:104B00002046FEF748FD70BD70B50546AC6B2868C1
:104B1000006800F48070002842D1E08500BF00BF2B
:104B200021680C3151E8001F21F4807021680C319C
:104B300041E80002002AF3D100BF00BF00BF216896
:104B4000143151E8001F21F001002168143141E8BF
:104B50000002002AF3D100BF00BF00BF216814315A
:104B600051E8001F21F040002168143141E80002A3
:104B7000002AF3D100BF202084F84200206B0128D6
:104B80000ED100BF00BF21680C3151E8001F21F099
:104B9000100021680C3141E80002002AF3D100BF67
:104BA00000206063206B012804D1A18D2046FEF710
:104BB000ACFC02E02046FFF7CFF870BD70B50546AB
:104BC000AC6B01206063206B012805D1A08D4108EA
:104BD0002046FEF79AFC02E02046FFF7BEF870BDC3
:104BE00070B50546AC6B2868006800F48070F8B9B1
:104BF0000020E08400BF00BF2168143151E8001F8D
:104C000021F080002168143141E80002002AF3D12C
:104C100000BF00BF00BF21680C3151E8001F41F008
:104C2000400021680C3141E80002002AF3D102E083
:104C30002046FFF7D9F870BD70B50446A56B28462D
:104C4000FFF7D3F870BD00BF00BF02680C3252E816
:104C5000002F22F4907102680C3242E80013002BFE
:104C6000F3D100BF00BF00BF0268143252E8002F2A
:104C700022F001010268143242E80013002BF3D144
:104C800000BF016B01290ED100BF00BF02680C32CA
:104C900052E8002F22F0100102680C3242E80013A3
:104CA000002BF3D100BF202180F8421000210163C6
:104CB000704710B504462068C06820F040002168A5
:104CC000C860202084F841002046FFF78DF80020BE
:104CD00010BD00BF00BF02680C3252E8002F22F066
:104CE000C00102680C3242E80013002BF3D100BF70
:104CF000202180F841107047F8B5044694F842002E
:104D0000222875D1A068B0F5805F0CD1206950B918
:104D10000025A66A20684068C0F308003080A06AB9
:104D2000801CA06215E0A56A0026A068B0F5805F2F
:104D300003D0A06828B9206918B920684068287095
:104D400004E02068406800F07F002870A06A401CE2
:104D5000A062E08D401E80B2E085002846D1206828
:104D6000C06820F020002168C8602068C06820F476
:104D700080702168C8602068406920F001002168C7
:104D80004861202084F8420000206063206B0128E5
:104D900026D10020206300BF00BF21680C3151E8FC
:104DA000001F21F0100021680C3141E80002002AA8
:104DB000F3D100BF2068006800F0100010280AD16D
:104DC00000BF0020009020680068009020684068C4
:104DD000009000BF00BFA18D2046FEF796FB02E0C9
:104DE0002046FEF7B9FF0020F8BD01E00020FBE7F8
:104DF0000220F9E70EB500BF4FF0FF3269460848C0
:104E0000006805F023FA012805D1BDF804200299B5
:104E10000098FEF7A3FF012003F0C3FDECE70000BC
:104E2000240100202DE9F84F04462068006920F491
:104E30004050E1680843216808612169A06808437F
:104E400061690843E169084300902068C06849F23D
:104E50000C618843009908432168C8602068406954
:104E600020F44070A16908432168486176492068B0
:104E7000884203D075492068884203D1FDF7AEFC13
:104E8000814602E0FDF79AFC8146E069B0F5004FEB
:104E90006CD102206168A0FB015003461920A9FBD8
:104EA000007001462A463846FBF766FA6421B0FBDB
:104EB000F1F04FEA001A02206168A0FB01510B4695
:104EC0001920A9FB00712A463846FBF755FA83469C
:104ED00002206168A0FB015003461920A9FB007164
:104EE0002A463846FBF748FA6421B0FBF1F000EBA4
:104EF000C00101EB0010ABEB8000322101EBC000E0
:104F00006421B0FBF1F000F0F8000AEB400A022047
:104F10006168A0FB015003461920A9FB00700146FF
:104F20002A463846FBF728FA834602206168A0FB30
:104F3000015003461920A9FB00712A463846FBF7A9
:104F40001BFA6421B0FBF1F000EBC00101EB001093
:104F5000ABEB8000322101EBC0006421B0FBF1F02B
:104F600000F007005044216888606AE0042061680E
:104F7000A0FB015003461920A9FB007001462A46F8
:104F80003846FBF7F9F9824604206168A0FB01501E
:104F900003461920A9FB007001462A463846FBF754
:104FA000EBF96421B0FBF1F000EBC00101EB001064
:104FB000AAEB8000322101EB00106421B0FBF1F07C
:104FC00000F0F00A04206168A0FB0170034619207C
:104FD000A9FB00513A462846FBF7CEF96421B0FB05
:104FE000F1F00AEB001A04206168A0FB01510B46A6
:104FF0001920A9FB00712A463846FBF7BDF9834604
:1050000004206168A0FB015003461920A9FB007031
:1050100001462A463846FBF7AFF96421B0FBF1F0B0
:1050200000EBC00101EB0010ABEB8000322101EB83
:1050300000106421B0FBF1F000F00F005044216833
:105040008860BDE8F88F00000010014000140140A6
:1050500077B581B0044615460298A062A585002068
:105060006064222084F842002848E16BC863284825
:10507000E16B08642748E16BC8640020E16B0865B8
:1050800002AE32682368191D2B46E06BFCF7FAFF6D
:1050900000BF0020009020680068009020684068F1
:1050A000009000BF00BF206970B100BF00BF216841
:1050B0000C3151E8001F41F4807021680C3141E847
:1050C0000002002AF3D100BF00BF00BF21681431E5
:1050D00051E8001F41F001002168143141E800024D
:1050E000002AF3D100BF00BF00BF2168143151E88E
:1050F000001F41F040002168143141E80002002AFD
:10510000F3D100BF002004B070BD0000094B0008BF
:10511000BD4B0008B94A0008014691F8410021281A
:1051200028D18868B0F5805F0BD1086948B90A6A50
:105130001088C0F308000B685860086A801C086279
:1051400005E00B6A581C086218780B685860C88C18
:10515000401E80B2C88458B90868C06820F080003A
:105160000B68D8600868C06840F040000B68D860E1
:10517000002070470220FCE710B50348FEF70CFA48
:10518000024800F0C5F810BD60020020D45700208E
:1051900010B50348FEF700FA024800F0B9F810BD58
:1051A000A8020020E457002010B50348FEF7F4F9E8
:1051B000024800F0ADF810BDF0020020F4570020C6
:1051C00010B50348FEF7E8F9024800F0A1F810BD59
:1051D0003803002004580020F8B504460D46164652
:1051E0001F460CB9FBF7D0FF4149206888421BD10C
:1051F0004048046085608680C76000BF0020009042
:1052000020680068009020684068009000BF00BFE0
:105210002068C06840F010002168C8603246294606
:105220002046FEF783FD61E03349206888421BD1A8
:105230003248046085608680C76000BF002000900F
:1052400020680068009020684068009000BF00BFA0
:105250002068C06840F010002168C86032462946C6
:105260002046FEF763FD41E02549206888421BD1B6
:105270002448046085608680C76000BF00200090DD
:1052800020680068009020684068009000BF00BF60
:105290002068C06840F010002168C8603246294686
:1052A0002046FEF743FD21E01749206888421BD1C4
:1052B0001648046085608680C76000BF00200090AB
:1052C00020680068009020684068009000BF00BF20
:1052D0002068C06840F010002168C8603246294646
:1052E0002046FEF723FD01E0FBF74EFFF8BD00006E
:1052F00000100140D457002000440040E457002033
:1053000000480040F45700200014014004580020D9
:1053100010B50446206800680068C0F3001010B1A2
:10532000204600F001F810BD38B5044600BF00204B
:10533000009020680068006800902068006840685D
:10534000009000BF00BF2068FEF7E0F8A088216849
:10535000C96B09684968401A06490880E06818B1B5
:105360000988D4E902029047A288A1682068FEF764
:10537000DDFC38BD5401002002480068401C014992
:10538000086070474801002000BFFEE700BF012011
:1053900003F007FBFBE7000010B52DED048BB7EE23
:1053A000080A8A4880ED150AB0EE080A80ED000A66
:1053B000B0EE080A80ED010AB1EE000A80ED050AA0
:1053C000DFED832A9FED832ADFED831A9FED801A9C
:1053D000DFED820AB2EE080A002100F017FCDFEDD3
:1053E0007C2A9FED7C2ADFED7C1A9FED791ADFED98
:1053F0007B0AB2EE080A0121744800F007FCDFEDD9
:10540000742A9FED742ADFED741A9FED711ADFED97
:10541000730AB2EE080A02216C4800F0F7FBDFEDD8
:105420006C2A9FED6C2ADFED6C1A9FED691ADFED97
:105430006B0AB2EE080A0321644800F0E7FBDFEDD7
:10544000682A9FED682ADFED641A9FED651ADFED8B
:10545000600A9FED650A04215C4800F0D7FBDFED90
:10546000602A9FED602ADFED5C1A9FED5D1ADFED8B
:10547000580A9FED5D0A0521544800F0C7FBDFED97
:10548000582A9FED582ADFED541A9FED551ADFED8B
:10549000500A9FED550A06214C4800F0B7FBDFED9E
:1054A000502A9FED502ADFED4C1A9FED4D1ADFED8B
:1054B000480A9FED4D0A0721444800F0A7FB01234D
:1054C0001A46F7EE000A9FED490A00213F4800F016
:1054D0002BFB01231A46F7EE000A9FED440A1946FA
:1054E0003A4800F021FB01231A46F7EE000A9FED2F
:1054F0003F0A0221354800F017FB01231A46F7EE58
:10550000000A9FED3A0A0321304800F00DFB00230A
:105510000122DFED320A9FED350A04212B4800F00D
:1055200003FB00230122DFED2D0A9FED300A052148
:10553000264800F0F9FA00230122DFED280A9FED4A
:105540002B0A0621214800F0EFFA00230122DFEDAB
:10555000230A9FED260A07211C4800F0E5FA9FED7B
:10556000240AB0EE408A9FED220AF0EE408A9FEDB9
:10557000210AB0EE409A9FED200AF0EE409ABCEE70
:10558000C80A10EE100A81B21C4800F05EF9BCEEA9
:10559000E80A10EE100A81B218482C3000F055F9D4
:1055A000BCEEC90A10EE100A81B21448583000F05F
:1055B0004CF9BCEEE90A10EE100A81B20F488430B3
:1055C00000F043F9BDEC048B10BD00000852002030
:1055D000000000000060EA460000C843CDCCCC3D8E
:1055E000CDCC4C3E0000FA440000F042CDCC4C3F04
:1055F000610B3645610B764589884845005000208F
:1056000070B52DED028B04460D466878297840EA86
:1056100001202082207F38B3208A00EE100AB8EEE5
:10562000400AD4ED060A30EE600ADFED2A0AB4EE35
:10563000E00AF1EE10FA03D2206A401C20621CE05E
:10564000208A00EE100AB8EE400AD4ED060A30EEC9
:10565000600ADFED210AB4EEE00AF1EE10FA0CDD8B
:10566000206A401E206208E0208A00EE100AB8EE90
:10567000400A84ED020A01202077208A00EE100AF9
:10568000B8EE400A84ED060A218A206A01EB403018
:1056900000EE100AB8EEC00AD4ED020A30EE600A3D
:1056A000BDEEC08A2068416A20468847F8EEC80AE5
:1056B000C0EE808A206881692046884700EE100A83
:1056C000B8EE400AC8EE800AC4ED050ABDEC028BB4
:1056D00070BD0000000080C50000804510B5044684
:1056E000204602F060F8044610BDCA788B7842EA82
:1056F000032212B2828470470E4A026001719FED4C
:105700000E0A80ED020A9FED0C0A80ED030A0022CA
:1057100002829FED090A80ED050A9FED070A80EDE0
:10572000060A0277026200BF044A026000228284F5
:105730007047000030B7000800000000A8B700085C
:1057400000BF00BF00BF704770B5044600251A486F
:10575000006858B3E06B28B9174800688047E063D9
:10576000012070BD1448006880470546E06BA842E0
:1057700009D9681EE16B401A00EE100AB8EE400A23
:1057800084ED0E0A07E0E06B281A00EE100AB8EE6E
:10579000400A84ED0E0AE56394ED0E0ADFED070A78
:1057A00020EE200A84ED0E0A0020DAE79FED040ABD
:1057B00084ED0E0A0120D4E7D8000020BD378635DD
:1057C00000000000014619B1024801600120704745
:1057D0000020FCE7D8000020B0EE401A9FED050A3B
:1057E00060EE801A9FED040A21EE002A81EE820A03
:1057F0007047000000007042DA0FC94070B52DED0F
:10580000028B04460D462068816A20468847B0EE28
:10581000408A2068816A20468847B1EE400AF0EE4F
:10582000408AF0EE480A04F10C0005F06DF994EDA1
:10583000030ABDEEC00A10EE100A02B22946204645
:1058400001F0E8FFBDEC028B70BD024600EE101ABD
:10585000B8EE400A82ED020A00EE101AB8EE400AD5
:1058600082ED060A01201077108A704770B5044651
:105870000D4620682946C26920469047206829467F
:10588000026B204690476879297940EA012000B2EE
:10589000E084A87984F8280070BD000070B5044643
:1058A0000E46254631462846FFF726FF05460648A0
:1058B000286000BF2C46054828600020E08484F85A
:1058C0002800204670BD0000A8B80008E4B7000812
:1058D00010B50446204601F066FF0446204610BD80
:1058E00000B50146B0EE402AB0EE420A084600F08C
:1058F00004F8084600F008F800BDD0ED010AC0ED3C
:10590000020A80ED010A704790ED010AD0ED000A0D
:1059100020EE200AD0ED020A90ED001AF7EE001AF0
:1059200031EEC11A00EE810A7047000080ED000AD6
:10593000DFED030AC0ED020AC0ED010A7047000066
:105940000000000070B505460C462168491EC1EBF9
:10595000C101484A02EBC10001F050FF064605F0C4
:10596000F4F8642869DA4448006858B901204249CB
:1059700008604248006880474FF47A71B0FBF1F04C
:105980003F4908603D48006880474FF47A71B0FB9A
:10599000F1F03B490968401AB0F5FA6F33D9206835
:1059A000012806D002280DD0032816D0042828D1BB
:1059B0001CE095ED140AF0EE000A80EE201A84ED4A
:1059C000021A1FE095ED140AB1EE400AF0EE000A4B
:1059D00080EE201A84ED021A14E095ED140AF0EE20
:1059E000000A80EE201A84ED021A0BE095ED140AED
:1059F000B1EE400AF0EE000A80EE201A84ED021AA1
:105A000000E000BF35E0D4ED010AB0EE600A05F019
:105A10008FF8DFED1C0AB4EEE00AF1EE10FA28D29E
:105A200094ED030AD5ED310AF8EEE00A9FED161A5F
:105A300000EEC10A84ED020A1BE0D4ED010AB0EECB
:105A4000600A05F075F8DFED0F0AB4EEE00AF1EE3A
:105A500010FA0BD294ED030AD5ED310AF8EEE00A04
:105A60009FED091A00EEC10A84ED020A00200249E6
:105A7000086070BDB0500020F4000020D800002065
:105A8000F80000200000C8420000B44310B50446EE
:105A90002049214804F0BAFF20480068012804DAB0
:105AA0001F49204804F0E8FF2DE01C480068012849
:105AB00009DB1A480068022805DA19493831194803
:105AC00004F0DAFF1FE015480068022809DB1348DC
:105AD0000068032805DA12497031124804F0CCFF3F
